:4000000000400020110000004D0D00004D0D000080B500AF00F0C8FE80B500AF274B12221A6002F0DFFD264B181C02F0E9FB012002F0E8FD302002F015FC224B224A1A6016
:40004000224B8022D2051A60214B214A126802210A431A601F4B204A1A60204B1F4A126808218A431A60FA23DB00181C02F046FC1B4B181C02F096FC1A4B802252001A6088
:40008000194B1A4A1A601A4BC82252011A60164B184A1A60184B802212061A60174B802212031A60164B40221A60164B41221A60064B8022D2051A60BD4680BD30001040FC
:4000C000001BB70004010B40060000800C020B4078002E407C002E406A2D00006CF02E40DC050000000301400000014040FF00800403014041FF008008010B4000010B4001
:400100002C0101400401014080B582B000AF72B64B4B00221A604B4B01221A70FB1D00221A7023E0FB1D1A78131C5B009B185B00454A9B183B603B681A78597809020A4314
:40014000997809040A43DB781B061343191C3B681A795B791B0213439BB2081C191C00F0A7FEFB1D1A78FB1D01321A70FB1D1B78012BD7D9354A364B101C191C00F0A8FE60
:40018000344BEE2212061A60334B992212041A60324B992212041A60314B992212041A60304B992212041A602F4B992212041A602E4B02221A602E4B02221A602D4A2D4B1E
:4001C0001B78DBB202210B43DBB213702A4A2A4B1B78DBB23C218B43DBB214210B43DBB21370244A234B1B78DBB216210B43DBB21370224B08221A60214B224A1A60224BA9
:4002000020221A60214BC42292021A60204B20221A60204B80221A601F4BB022D2031A601E4B8022D2011A601D4BD82212041A60FFF7F2FE00F08CFEBD4602B080BDC046C7
:400240006CF02E401C700F40C05F0100CC5F0100E05F0100000002400001024000500F4010500F4020500F4030500F402000104000800F4000700F4001700F4000000440EA
:4002800008000440060CD80000010440080104401801044000020440080204400C0204400803044010B5064C2378002B07D1054B002B02D0044800E000BF0123237010BD73
:4002C0002011002000000000985A010008B5084B002B03D00748084900E000BF07480368002B00D108BD064B002BFBD09847F9E700000000985A010024110020A80B0020D1
:400300000000000080B500AF0C4B1B8801339AB20A4B1A80094B1A88FA239B009A420BD102F050FF031C5A425341DBB2181C02F023FF024B00221A80BD4680BD3E110020ED
:4003400090B587B000AF786039607B68282B00D1C2E012D8032B00D17CE005D8012B26D0022B00D168E011E1262B00D180E000D9A9E0042B00D172E008E14C2B00D1ECE089
:4003800009D8422B00D1DAE0432B00D106E1412B00D1C1E0FAE0FA2B00D1F2E082225200934200D1FCE0572B00D1E1E0EEE07E4B181C03F0D3FA0823FB1800229A71082311
:4003C000FB18181C04F092FA1723FB1806221A7013E01723FB181B78013B0822BA18D35C1A1C724B181C111C03F0B8FA1723FB181A781723FB18013A1A701723FB181B7833
:40040000002BE6D16A4B181C03F024FB1423FC18002000F077FF031C23801423FB181B88002B08D01423FB181B88624A101C191C03F094FAB5E0B4E03B681B78012B04D181
:400440005D4B181C03F006FBABE05C4B181C03F001FBA6E05A4B181C03F0FCFAA1E03B681B781A1C574B181C111C03F077FA98E0554B1B78042B25D1544B181C03F0EAFA41
:40048000002000F03DFE012002F0AAF8012000F05DFEC04600F0BAFD011C4D4B1A6880231B02134001D0012300E00023CB18002BF0D102F035F902F029F902F0B7F802F04B
:4004C00011FB6EE06DE0434B1B781A1C424B181C111C03F043FA64E0404B181C03F0BAFA1423FC18002000F00DFF031C2380394B00221A703A4B00221A701423FB181B88BF
:40050000002B08D01423FB181B88364A101C191C03F024FA45E044E02E4A3B68111C1A1C0223081C111C1A1C03F007FA294B5B781A1C2D4B181C111C03F010FA31E02B4B98
:40054000181C03F087FA234B00225A70284B002001211A1C01F064F823E03B683B613B699B89152B04D13B695B681A78214B1A703B685B881A1C204B181C111C03F0EEF9D1
:400580000FE01E4B181C03F065FA0AE01C4A7B68101C191C03F0E2F9C04602E0C04600E0C046BD4607B090BD9C5A0100C05A0100C85A0100CC5A0100F05A0100345B0100E9
:4005C000485B01005C5B0100962200207C5B01000802244080220020885B0100B05B010086220020D45B0100F85B01001C5C010087220020842200203C5C0100745C010011
:40060000945C010080B500AF034B01221A7002F087F8BD4680BDC0463C11002080B500AF02F03AFB0E4B181C02F092F80120012102F070FB0120012102F098FB094B0120D5
:40064000191C02F0F9FB012002F084FC80235B00181C02F0C1FB02F0F5FABD4680BDC04669060000FF7F000080B500AF02F02CFC021C8023DB0013401AD00E4B1B78022BE8
:4006800011D00D4B1B78142B0AD00C4B1B78002B06D0094B1B780133DAB2074B1A7002E0064B00221A708023DB00181C02F01AFCBD4680BD962200208622002087220020A5
:4006C00080B582B000AFFB1D00221A704E4B1B78042B09D1012000F013FD012001F080FF012000F033FD18E0474B1B78032B0BD1012000F005FD012000F028FDFB1D1A78DE
:40070000FB1D01321A7008E0002000F0F9FC012001F066FF012000F019FD3B4B1B78022B00D16EE0394B1B78012B27D1384B1B78142B23D0374B1B78012B06D1364B181CA4
:4007400003F088F9334B00221A70344B1B88142B0DD1334B1B78012B03D1314B00221A7002E02F4B01221A702C4B00221A802B4B1B8801339AB2294B1A8024E0234B1B787B
:40078000022B16D1224B1B78142B12D0214B1B78012B06D1234B181C03F05CF91D4B00221A70214B181C03F055F91D4B00221A7009E0184B01221A701C4B181C03F04AF945
:4007C000174B01221A70FB1D1B78002B09D0002001F006FF012000F0B9FC012000F090FC02E0012001F0FCFE0D4B1B781A1C104B181C111C03F0B2F8094B1B78181C00F04F
:40080000A5FCBD4602B080BD962200208722002086220020AF0B0020A85C01007C220020AE0B0020D45C0100005D0100105D0100245D010090B583B000AF224B1B78032B72
:4008400003D0204B1B78022B39D1FC1D032004F045F8031C2370BC1D01F0DBFF031C2370FB1D1B78032B1ED105F0D0FF031E042B04D005F0CBFF031E062B1BD100F0C6FB9D
:40088000011C114B1A6880231B02134001D0012300E00023CB18002B02D102F0EDF809E002F0D0F806E005F0B1FF031E022B01D002F0C8F8BB1D1B78181C01F0AEFFBD463B
:4008C00003B090BD9622002008022440B0B582B000AF02F093FB834B181C02F0F3FB62B6012000F00DFC012001F07AFE012000F02DFC7D4B181C00F06FFC7C4B181C01F0D1
:40090000A7FE7B4B181C00F001FE7A4B181C00F0C7FEFFF783FE00F047FB3B1D01225A703B1D08221A70BC1D3B1D181C05F0A0FF031C2380BB1D1B88002B32D13B1D1B7832
:40094000181C00F065F9031CDAB2FB1C1A703B1D00225A703B1D08221A70BC1D3B1D181C05F086FF031C2380BB1D1B88002B18D1BC1DFB1C002001211A1C00F00FFF031CA4
:400980002380BB1D1B88002B03D05B4B181C03F061F8FB1C1B785BB2584A101C191C02F0DDFF03F0A7FFFFF745FF554B1B781A1C544B181C111C02F0D1FF534B1B78022B11
:4009C00015D0514B1B78032B11D0504B1B78012B0CD1002000F096FC031E03D14C4B181C03F038F8494B00221A7078E077E0474B1B78012B00D072E03B1D01225A703B1D19
:400A0000181C05F00BFF3B1D181C00F047F9BC1D3B1D181C05F02CFF031C2380BB1D1B88002B59D13B1D1B78181C00F0F1F8031CDAB2FB1C1A703B1D00225A703B1D181C9C
:400A400005F0ECFE3B1D181C00F028F9BC1D3B1D181C05F00DFF031C2380BC1DFB1C002001211A1C00F09AFE031C2380BB1D1B88002B31D1FB1C1B785BB2204A101C191CF6
:400A800002F06CFF234B1B78012B25D1224B1B78012B21D1BC1D214BFD1C1A785B781B021A4300231204120C1B0C1B041343181C002101222B1C00F0B1FE031C2380BB1D70
:400AC0001B88002B04D1164B181C02F0C3FF03E0144B181C02F0BEFF0C4B00221A70FFF7EFFD5EE7050300004103000005060000290B0000B50B0000405D01006C5D010008
:400B000086220020905D0100962200203C110020A85D010040110020B00B002080220020D45D01000C5E010080B584B000AF786039607A68BC23FF339A422CD1174B181C1E
:400B400002F088FF3B68FB60FB685B689B88012B21D1FB685B681B681A78114B1A70104B1B78012B08D0022B0BD0002B0ED10D4B181C02F06FFF0EE00B4B181C02F06AFFB3
:400B800009E00A4B181C02F065FF04E0084B181C02F060FFC046BD4604B080BD385E010087220020645E0100905E0100C05E0100F05E010080B582B000AF786039607B68CD
:400BC000E83BFF3B052B14D89A000D4BD3181B689F460C4B01221A700B4B181C02F03AFF0AE0084B00221A70084B181C02F032FF02E0C04600E0C046BD4602B080BDC04625
:400C0000605F010040110020285F0100445F010080B584B000AF021CFB1D1A700F23FB1803221A70FB1D1B78082B2CD89A001A4BD3181B689F460F23FB18EE221A7023E075
:400C40000F23FB18F4221A701EE00F23FB18FA221A7019E00F23FB18FD221A7014E00F23FB18FE221A700FE00F23FB18FF221A700AE00F23FB1800221A7005E00F23FB18F8
:400C800003221A7000E0C0460F23FB181B785BB2181CBD4604B080BD785F010080B582B000AF7860194B01221A707B681B78082B27D89A00164BD3181B689F467B680122BF
:400CC0001A70124B00221A701CE07B6801221A7018E07B6802221A7014E07B6803221A7010E07B6804221A700CE07B6805221A7008E07B6806221A7004E07B6807221A70CC
:400D000000E0C046BD4602B080BDC046B00B00209C5F010080B586B000AFF860B9607A6000237B6109E0BB685A1CBA601B78181C00F056F97B6901337B617A697B689A4262
:400D4000F1DB7B68181CBD4606B080BD80B500AFFEE7C04680B584B000AF7860104B1A687B68D3181A1C0F4BD21A8023DB009A4209DC0B4B1B68FB60094B1A687B68D2189E
:400D8000074B1A6007E002F09DFD031C0C221A6001235B42FB60FB68181CBD4604B080BDB40B0020A822002080B586B000AF224B7B61224B3B61204B7B6135E03B691B68CE
:400DC000FB603B695B68BB603B699B683B6000237B600CE0FB681A68BB681A60BB680433BB60FB680433FB607B6804337B607A683B689A42EED13B69DB683B6000237B6069
:400E000008E0BB6800221A60BB680433BB607B6804337B607A683B689A42F2D13B6910333B617B69013B7B617B69002BC6D102F04FFDFFF74BFDFEE701000000986A0100F3
:400E400080B582B000AF154B144A126801218A431A6000237B600FE07B68032B04D8104B7A689200D35800E00E4B0F4A796889008B507B6801337B607B682F2BECD9FFF726
:400E800043F90A4B00221A60044B044A126801210A431A60BD4602B080BDC04600001040000000004D0D000000000020C000002080B582B000AF786039607A683B68101C2B
:400EC00000211A1C02F042FDBD4602B080BDC04680B586B000AF7860396000233B6100237B612FE07B699B007A68D3181B68BB600F23FB18BA681A70BB68FF229343BB600A
:400F000018E03B695B003A68D3181B781A1CBB68D318191C3B695B003A68D3185B780B703B6901333B610F23FB181A780F23FB18013A1A700F23FB181B78002BE1D17B6959
:400F400001337B617B69042BCCD9BD4606B080BD80B500AF054B03221A60054B03221A60044B00221A60BD4680BDC0463000304030003140000E3F4080B500AF00F056F8D0
:400F8000BD4680BD80B500AF064B064A1268802109060A431A6000F019F800F01BF8BD4680BDC0460000244080B500AF064B1B78002B04D1FFF7E0FF034B01221A70FFF73F
:400FC000E1FFBD4680BDC0464111002080B500AFBD4680BD80B500AF00F080F8BD4680BD80B582B000AF7860C046064B1B681F221340082BF9D0044B7A681A60BD4602B0F1
:4010000080BDC046080224404002244080B582B000AF054B1B681F2213407B607B68181CBD4602B080BDC0460802244080B500AF184B194A1A60194B00221A60184B0122DA
:401040001A60184B184A1A60184B07221A60184B00221A60174B01221A60174B124A1A60164B00221A60164B04221A60154B00221A60154B00221A60144B00221A60144B2B
:4010800000221A60134B00221A60134B00221A60BD4680BD000024400F00000240002440480024400003244007000080040324401003244044002440000224400402244053
:4010C00050002440880E2440C80E2440480F2440080F2440C80F2440880F244080B500AF054B054A126805490A40902109040A431A60BD4680BDC04600010240FFFF0FFFED
:4011000080B584B000AF021CFB1D1A700E4B1B68DAB20F23FB1840218A431A70FB1D1B789B01DBB240221340D9B20F23FB180F22BA1812780A431A70034B0F22BA181278DA
:401140001A60BD4604B080BD0002044080B584B000AF021CFB1D1A700D4B1B68DAB20F23FB187F210A401A70FB1D1B78DB01D9B20F23FB180F22BA1812780A431A70044BB9
:401180000F22BA1812781A60BD4604B080BDC0460003044080B500AF064B00221A70064B00221A70054B00221A7000F009F8BD4680BDC0469F220020982200209E2200203B
:4011C00080B500AF00F016FE00F09CF900F064FA00F014FEBD4680BDB0B594B004AF78603E23FB1800221A802823FA183E4B111C1A1C1423081C111C1A1C02F09EFB3B4B76
:401200001B78002B04D1FFF7C5FF384B01221A707B68002B5CD0364B7A681A603E23FB181B88002B29D11023FB181C22BA185A601023FB182022BA181A601023FB18002292
:401240001A812023FB181B221A802023FB181B225A802023FB1804221A711C23FB1800221A703E23FC181023FA180E23FB18101C191C03F015FC031C23803E23FB181B88F8
:40128000002B29D13E23FC181A481B49AE231A012823FD180523009300230193002302932B1C03F059FB031C23803E23FB181B88002B11D1114B01221A703E23FC18104B0B
:4012C000181C5721122210F0D3F8031C238003E03E23FB1801221A803E23FB181B88181CBD4610B0B0BDC046786001004411002088220020E11A0000C80000209622002019
:401300009460010090B585B000AF021CFB1D1A70FB1D1B78022B04D90E23FB1801221A804CE02A4B1B78042B43D1294B1B78DBB21A1C042313403CD1FB1D1B78002B0CD19E
:40134000244BE12292001A82224B5B6820221A80204B5B6830225A8010E0FB1D1B78012B0CD11C4B96221A821A4B5B68C822D2001A80184B5B688022D2015A80164BFA1D9D
:4013800012781A700E23FC18124B181C0DF0D8FD031C23800E23FB181B88002B08D10C4B1B78DBB204221343DAB2094B1A7005E004E00E23FB180422FF321A800E23FB1825
:4013C0001B88181CBD4605B090BDC046962200209F220020E80B00209E22002080B584B000AF78600A1CFB1C1A700023BB60BB68002B20D07B689A79BB681A700F23FB1844
:4014000000221A7012E00F23FB181B780133BA68D3180F22BA18127879688A5C1A700F23FB181A780F23FB1801321A700F23FB181B78052BE7D9BD4604B080BD80B582B01B
:4014400000AF78607B681B789AB27B6801331B789BB21B029BB213439BB2181CBD4602B080BDC04690B585B000AF78600F23FB1800221A707B689B890B22934237D17B680D
:401480001A1D7B680F217C18101C00211A1C402310F03CF8031C23700F23FB181B78002B1DD17B685B68181CFFF7C8FF031C1A1C022313409BB2002B08D0104B1B6882225B
:4014C00051007A68081C111C984708E00B4B1B680622FF32111C7A68081C111C9847084B1B78DBB201229343DAB2054B1A700F23FB181B78181CBD4605B090BD8822002083
:401500009F22002080B500AFBD4680BD80B582B000AF7860024B7A681A60BD4602B080BD6811002080B584B000AF0F23FB1800221A700E223B1C1A813B1C01229A803B1C6E
:401540000F22BA181A603B1C181C0021002200230FF0DCFFBD4604B080BDC04690B587B000AF78601723FB1800221A702A4B1B68002B49D00E227B689B899A4244D17B68E6
:401580005B681B78022B33D87B681B89012B2AD17B681A1D7B6817217C18101C00211A1C40230FF0B3FF031C23701723FB181B78002B21D10C23FB187A6812881A800C2359
:4015C000FB1800229A707B681A1D0C23FB185A60114B1B68BC22FF32111C0C22BA18081C111C984708E01723FB180D221A7003E01723FB18FF221A70084B1B78DBB20122EC
:401600009343DAB2054B1A701723FB181B78181CBD4607B090BDC046681100209F22002080B586B000AF3A60FB1D021C1A70BB1D0A1C1A701623FB1801221A803B68002B00
:4016400022D0FB1D1B78002B1ED1BB1D1B78012B1AD10E220823FB181A81BB1D1B789AB20823FB189A800823FB183A681A600823FB18181C002100220FF012FF031E03D105
:401680001623FB1800221A801623FB181B88181CBD4606B080BDC04680B500AFBD4680BD80B582B000AF7860024B7A681A60BD4602B080BD6C11002090B587B000AF7860B6
:4016C0001723FB1800221A70F4235B003B61304B1B68002B54D07B689B89122293424FD111235A1E2B49131C9B009B189B00CB185A6880235B01134036D07B685B68181C57
:40170000FFF79CFE031C1A1C012313409BB2002B02D0E823FF333B617B681A1D7B6817217C18101C00211A1C40230FF0EFFE031C23701723FB181B78002B19D10823FB18AA
:401740007A6812881A800823FB1800229A700823FB1800225A600E4B1B6839690822BA18081C111C984703E01723FB1806221A70094B1B78DBB201229343DAB2064B1A706F
:401780001723FB181B78181CBD4607B090BDC0466C110020946001009F22002080B586B000AF3A60FB1D021C1A70BB1D0A1C1A701623FB1801221A80FB1D1B78002B25D1C4
:4017C0003B681B785BB2032B20DC3B681B785BB212331BDB11220823FB181A81BB1D1B789AB20823FB189A800823FB183A681A600823FB18181C0021002200230FF086FE2E
:40180000031E03D11623FB1800221A801623FB181B88181CBD4606B080BDC04690B589B000AF0C243C192080081C111C7B600B23FB18021C1A700A23FB180A1C1A701E23F4
:40184000FB1801221A807B68002B53D00B23FB181B78002B4ED10A23FB181B78012B49D112235A1E2749131C9B009B189B00CB1808339B685B68181CFFF7E0FD031C1A1CBB
:40188000012313409BB2002B2FD011221023FB181A811023FB187A681A600A23FB181B789AB21023FB189A801023FB18181C0021002200230FF02AFE031E1BD1124B1B7801
:4018C000022B05D01E23FB180422FF321A8011E01E23FC180C23FB181022BA181868111C0EF09AFC031C238004E01E23FB18802252001A801E23FB181B88181CBD4609B065
:4019000090BDC046946001009622002090B585B000AF78600F23FC187B68181CFFF7A2FD031C2370324B1B78DBB21A1C012313400CD00F23FB181B78002B07D10F23FC189B
:401940007B68181CFFF70AFE031C2370284B1B78DBB21A1C012313400CD00F23FB181B78002B07D10F23FC187B68181CFFF7A4FE031C23701E4B1B78DBB21A1C01231340CC
:401980000CD00F23FB181B78002B07D10F23FC187B68181C00F0E6FA031C2370144B1B78DBB21A1C012313401FD10F23FB181B78002B16D00823FB1812229A707B689A890A
:4019C0000823FB181A800823FB180F22BA181278DA707B680822BA181868111C0EF0DEFB03E07B6818680EF075FCBD4605B090BD9F22002080B582B000AF78607B68002B00
:401A00000AD0074B1B78DBB21A1C0123134003D07B68181C00F000FABD4602B080BDC0469F22002080B500AF044B00225A70034B00221A7000F0E2F9BD4680BD9C220020FE
:401A400080B582B000AF7860BD4602B080BDC04680B500AFFFF766FDBD4680BD80B584B000AF78600E23FB1800221A707B689B79002B1CD10F23FB1800221A7012E00F23FF
:401A8000FB181B787A68D35C002B04D00E23FB1801221A700BE00F23FB181A780F23FB1801321A700F23FB181B78052BE7D90E23FB181B78181CBD4604B080BD80B582B08D
:401AC00000AF021CBB1D1A80BD4602B080BDC04680B582B000AF7860BD4602B080BDC04680B586B000AF021C3960FB1D1A70B64B1B78DBB201221343DAB2B34B1A70FB1D90
:401B00001B78712B00D944E19A00B04BD3181B689F460C23FB1808221A700C23FB1800225A700C23FB18181C04F0A2FE0C23FB1808221A700C23FB1801225A700C23FB18FB
:401B4000181C04F095FEA24B1B68181CFFF786FF031E11D09E4B1B68181C02F0CFFE9C4B1B68181C0021FFF739FC994B1B68181C0121FFF733FC0DE0964B181C02F0BEFEAE
:401B8000944B181C0021FFF729FC924B181C0121FFF724FC03200DF083F80823FB183F221A700823FB1800225A700823FB18181C0DF094F8884B04221A70EBE03B68181C7F
:401BC000FFF73EFFE6E03B681A78844B1A70E1E03B683B613B691B78002B18D13B695B78002B0BD17E4B0022DA807D4B00229A807B4B7C4A1A603B69794A5A60724B1B78D5
:401C0000DBB201229343DAB26F4B1A70C2E0C1E06D4B1B78DBB21A1C2023134016D1724B1B78102B02D1704B0522DA706F4B1A786D4B101C191C0DF043F9634B1B78DBB28A
:401C400001221343DAB2604B1A70A3E0A2E03B68181CFFF73DFF9DE03B68181CFFF738FF5D4B02221A7095E05B4B04221A7091E0594B1B78022B34D0534B1B78DBB21A1CAD
:401C8000012313402DD0504B1B78DBB21A1C042313400BD0504B03221A704B4B1B78DBB204229343DAB2484B1A701AE0464B1B78DBB21A1C082313400BD0474B04221A7049
:401CC000414B1B78DBB208229343DAB23E4B1A7007E0414B1B78032B03D13F4B04221A7058E057E03B681B88181CFFF7E7FE51E03E4A3B68111C1A1C0223081C111C1A1C28
:401D000001F01BFE354B00221A70FFF7A1FE41E0FFF788FE3EE03B685B88162B05D81623FB183A6852881A8003E01623FB1817221A803B681622BA1811881A8800231204F4
:401D4000120C1B0C1B041343181C0EF031FA21E03B68181CFFF7DAFD1CE01B4B1B78DBB21A1C0123134004D03B68181C00F062FA10E00FE03B68181C00F0C4FA0AE03B6890
:401D8000181CFFF737FE05E03B68181C00F08CF800E0C0460C4B1B78DBB21A1C112313400FD0094B1B78DBB201229343DAB2064B1A700F4B1B68FA1D11783A68081C111C57
:401DC0009847BD4606B080BD9F22002060670100040C0020FC0B0020962200209822002070110020A80B0020B00D00209C2200208822002080B500AFBD4680BD80B500AF5B
:401E0000034B00221A70034B00221A80BD4680BDA02200207C11002080B586B000AF78601D4B1B68002B33D054221C4B1B889A422ED11A4B00221A80194B1B780122934358
:401E4000DAB2174B1A700C23FA187B68111C1A1C0223081C111C1A1C01F06FFD0C23FB181D229A700C23FB1800225A600D4B1B78DBB201229343DAB20A4B1A70064B1B6801
:401E8000F022FF32111C0C22BA18081C111C9847BD4606B080BDC046781100207C110020A02200209F22002080B586B000AF7860294B1B68002B4CD00C23FB187A6812887F
:401EC0001A800C23FB1800221A720C23FB1800225A600C23FB1800229A7035E00C23FB189B781D2B03D10C23FB181E229A707B685A880C23FB189B7818499B00CB185B88DE
:401F00009A4219D1144B1B68F92251000C22BA18081C111C98470C23FB181B7A802B02D17B6880221A710E4B1B78DBB201229343DAB20B4B1A700CE00C23FB189B780133A5
:401F4000DAB20C23FB189A700C23FB189B781E2BC4D9BD4606B080BD78110020286901009F22002090B589B000AF78601F23FB1800221A70AA4B1B68002B00D149E10C2369
:401F8000FB187A6812881A800C23FB1800221A727B689B895022934204D07B689B89552293425AD10C23FB1800225A607B681A1D7B681F217C18101C00211A1C40230FF094
:401FC000A5FA031C23701F23FB181B78002B3BD17B689B895022934217D10C23FB181B229A707B685B68181CFFF728FA031C1A1C012313409BB2002B03D0F8235B00BB6117
:402000001AE0F223FF33BB6116E00C23FB181D229A707B685B68181CFFF710FA031C1A1C022313409BB2002B03D0EE23FF33BB6102E0F7235B00BB61794B1B68B9690C2267
:40204000BA18081C111C9847764B1B78DBB201229343DAB2734B1A70DBE00C23FB1800229A70D0E07B689A890C23FB189B786E499B00CB185B889A4200D0BCE07B689A8916
:402080007B681F217C18101C191C42220EF012FC031C23701F23FB181B78002B29D10C23FB189B781D2B24D1604B1B7801221340DBB2002B04D01F23FB18FE221A7018E010
:4020C00055235A1E5A49131C9B009B189B00CB1808339B685B68181CFFF7B0F9031C1A1C022313409BB2002B03D11F23FB18FD221A701F23FB181B78002B00D072E07B684F
:402100001A1D0C23FB185A607B689B895A1E4849131C9B009B189B00CB185A6880231B01134004D11F23FB1803221A705AE07B6819897B689B895A1E3D48131C9B009B1874
:402140009B00C31808339B88994204D91F23FB180D221A7046E0324B1B68F422FF32111C0C22BA18081C111C98470C23FB181B7A802B04D11F23FB1880221A7032E07B682E
:402180001A1D7B681F217C18101C00211A1C40230FF0BCF9031C23701F23FB181B78002B20D10C23FB189B781F4A9B00D3185B885A1E1F49131C9B009B189B00CB180833A4
:4021C0009A680C23FB185B689B8813800C23FB189B781D2B06D1154B1B7801221343DAB2124B1A700F4B1B78DBB201229343DAB20C4B1A700DE00C23FB189B780133DAB2ED
:402200000C23FB189A700C23FB189B781E2B00D828E71F23FB181B78181CBD4609B090BD781100209F22002028690100A02200209460010080B584B000AF78600C23FB1883
:4022400017221A800C23FB18181C0DF0DDFB0F23FB1800221A7044E07B685A687B681B7A24498C4663441B01D3181A890F23FB181B7821499B00CB185B889A422AD10F23D2
:40228000FB181B781C4A9B00D3185B885A1E1B49131C9B009B189B00CB1808339B881A1C0C23FB181B88033B9A4207D97B681B7A012B06D101200DF0C1FF02E07B680B2214
:4022C0005A720F4B1B78DBB201229343DAB20C4B1A700BE00F23FB181A780F23FB1801321A700F23FB181B78022BB5D9BD4604B080BDC046FFFFFF0F28690100946001004E
:402300009F22002090B593B000AF78604623FB1800221A7017E04623FB181B780822BA18DB00D31800229A804623FB181A780823FB18D2000021D1504623FB181A784623AA
:40234000FB1801321A704623FB181B78022BE2D94723FB1800221A7075E04623FB1800221A7064E07B685A684723FB181B781B01D3181A894623FB181B7895499B00CB18E2
:402380005B889A424CD14623FB1819787B685A684723FB181B781B01D3189A897B6858684723FB181B781B01C3189B88D31898B20823FA18CB00D318021C9A804623FB18AC
:4023C0001A780823FB18D200D358002B0FD14623FB181A787B6859684723FB181B781B01CB1819680823FB18D200D15018E07B685A684723FB181B781B01D3189B89002B8F
:402400000ED14623FB181A787B6859684723FB181B781B01CB1819680823FB18D200D1504623FB181A784623FB1801321A704623FB181B78022B95D94723FB181A784723E0
:40244000FB1801321A707B681B7A4722BA1812789A4200D281E74623FB1800221A70ADE04623FB181B780822BA18DB00D3189B88002B00D19BE04623FB181B780822BA180E
:40248000DB00D31899884623FB181B78504A9B00D3185B885A1E4F48131C9B009B189B00C31808339B88994200D980E07B685B7A012B74D14623FB181A782023F918131CF5
:4024C0005B009B189B00CB18083300221A704623FB181A782023F918131C5B009B189B007A6812885A524623FB181A782023F918131C5B009B189B004622BA18CB18127826
:402500009A704623FB181A784623FB181B7808217918DB00C9182023F818131C5B009B189B00C31859602C4B1C684623FB181A782023F918131C5B009B189B00CA18F42311
:40254000FF33181C111CA0474623FB181A782023F918131C5B009B189B00CB1808331B78802B03D17B6880221A7318E04623FB181B78174A9B00D3185B885A1E1549131C8F
:402580009B009B189B00CB1808339B684622BA18127808217918D2008A1892881A800F4B1B78DBB201229343DAB20C4B1A704623FB181A784623FB1801321A704623FB18C8
:4025C0001B78022B00D84BE7BD4613B090BDC0462869010094600100781100209F22002080B584B000AF021CFB1D1A700E4B1B68DAB20F23FB1840218A431A70FB1D1B78FF
:402600009B01DBB240221340D9B20F23FB180F22BA1812780A431A70034B0F22BA1812781A60BD4604B080BD0003044080B500AF00F062F8054B181C00F020F8032000F02B
:4026400029F800F04FF8BD4680BDC0467526000080B582B000AF786000F04EF87B68181C00F00CF8032000F015F800F03BF8BD4602B080BD80B500AFBD4680BD80B582B032
:4026800000AF7860024B7A689A64BD4602B080BD0000002090B585B000AF021CFB1D1A701623FB600B23FC1800F0B3F8031C23700A4B0A4A12680A491140FA1D1078FA6880
:4026C0009040021C0A431A600B23FB181B78181C00F0A3F8BD4605B090BDC04600E400E0FFFF3FFF80B500AF024B04221A60BD4680BDC04600E100E080B500AF024B042258
:402700001A60BD4680BDC04680E100E080B500AF024B04221A60BD4680BDC04680E200E080B582B000AF094B1B68DAB2FB1D7F218A431A70054BFA1D12781A60FB1D1B78A1
:40274000DB09DBB2181CBD4602B080BD1002044080B582B000AF786000F048F87B68181C00F008F8032000F011F800F035F8BD4602B080BD80B582B000AF7860024B7A68FF
:402780001A66BD4602B080BD0000002090B585B000AF021CFB1D1A700623FB600B23FC1800F037F8031C23700A4B0A4A1268C0218A43111CFA1D1078FA689040021C0A43CD
:4027C0001A600B23FB181B78181C00F026F8BD4605B090BD08E400E080B500AF024B802252001A60BD4680BD00E100E080B500AF024B802252001A60BD4680BD80E100E0B8
:402800000230800803D00138FDD1C046C046C0467047EFF3108072B6704780F31088704790B585B000AF78600F23FC18FFF7F1FF031C2370094B7A6807210A40D104074A7B
:402840001268074802400A431A600F23FB181B78181CFFF7E2FFBD4605B090BD00010B40FFFFC7FF90B58BB000AF78602723FC18FFF7CFFF031C2370184B1A680C23FB188C
:402880001A60174B1A680C23FB185A607B68033B144AD35C1A1C0C23FB189A60124B1A680C23FB18DA601C23FB18104A1A600C23FA181C23FB185A600D4B1C22BA181A60EE
:4028C0000C4B0D4A1A600A4B1B682723FB181B78181CFFF7A2FFBD460BB090BD08010B4000010B40A869010030001040B6EA000008001040040010401700008080B584B094
:4029000000AF78600023FB60154B154A126801210A431A60134B144A1A60144B134A1268802109020A431A607B68002B12D01023FB600CE0012000F035F800F019F8031EC7
:4029400002D00023FB6005E07B68013B7B607B68002BEFD1FB68181CBD4604B080BDC04660F02E4078002E400220000010002E4080B582B000AF054B1B68012213407B604B
:402980007B68181CBD4602B080BDC0460C002E4080B582B000AF021CFB1D1A7001BEBD4602B080BD80B582B000AF021CBB1D1A80BB1D1B88044A12785343181CFFF720FF2F
:4029C000BD4602B080BDC046C00D002080B500AF154B154A1268920092081A60134B134A1268920092081A60114B114A1268920092081A600F4B0F4A1268920092081A60AA
:402A00000D4B0D4A1268920092081A600B4B0B4A1268920092081A60094B094A1268920092081A60BD4680BD0800044008010440080204400803044008040440080504401E
:402A40000806044090B583B000AFFC1DFFF7E1FE031C2370074B074A126804218A431A6030BFFB1D1B78181CFFF7D7FEBD4603B090BDC04610ED00E090B583B000AFFC1DF5
:402A8000FFF7C7FE031C2370114B114A1268520052081A600F4B104A128892B21A600F4B0E4A126804210A431A600D4B1B683B600220FFF7B5FE30BF094B3A681A60FB1D76
:402AC0001B78181CFFF7A9FEBD4603B090BDC04600000B400C000B4052F1FF0F10ED00E000010B4090B583B000AFFC1DFFF791FE031C2370FFF76AFF114B114A12688021A5
:402B000009060A431A600F4B0F4A128892B21A600E4B0E4A126804210A431A600C4B0C4A1268FF218A43F1210A431A6030BFFB1D1B78181CFFF771FEBD4603B090BDC04674
:402B400000000B400C000B4050F1FF0F10ED00E02C000B4080B500AF0E4B0E4A126801218A431A600B4B0B4A126802218A431A60094B094A126830218A4310210A431A60D2
:402B8000054B054A126807218A4301210A431A60BD4680BD00F02E4000FF2E4080B500AF0E4B0E4A126802218A431A600C4B0C4A126807218A4302210A431A60084B084AEF
:402BC000126830218A4320210A431A60034B034A126801210A431A60BD4680BD00F02E4000FF2E4080B500AFFFF7B4FF044B044A1268802109060A431A60BD4680BDC046CB
:402C000000F02E4080B584B000AF78600C4B1B6801221340FB607B68002B02D0012B03D005E0FFF797FF06E0FFF7B8FF03E00020FFF7AEFEC046FB68181CBD4604B080BD82
:402C400000F02E4090B583B000AFFC1DFFF7E1FD031C2370074B074A1268C02109020A431A60FB1D1B78181CFFF7D7FDBD4603B090BDC04600010B4080B500AF054B1A68AC
:402C8000C0231B02134001D0012300E00023181CBD4680BD00010B4090B583B000AFFC1DFFF7B7FD031C23700C4B0C4A12680C490A408021C9010A431A60084B074A126857
:402CC00007490A40802109020A431A60FB1D1B78181CFFF7A2FDBD4603B090BD00010B40FF3FFFFF80B582B000AF78607B68022B02D90020FFF74CFE054B1B687A68D20008
:402D00000132D34001221340181CBD4602B080BD10020B4080B584B000AF786039607B68022B02D90020FFF733FE7B68181CFFF7D9FF031E15D10C4B1B687A68D200111CF2
:402D400003228A40D2431340FB603B68032213407A68D2009340FA681343FB60024BFA681A60BD4604B080BD0C020B4080B584B000AF786039607B68002B02D07B68012BFE
:402D800001D1012300E00023002B02D10020FFF7FFFD7B68181CFFF7A5FF031E16D10D4B1B687A68D2000232111C01228A40D2431340FB607B68DB0002331A1C3B68934012
:402DC000FA681343FB60034BFA681A60BD4604B080BDC0460C020B4080B582B000AF7860144B144A11687A680A431A607B680122134005D0C0460020FFF774FF031EFAD0CE
:402E00007A6880235B00134005D0C0460120FFF769FF031EFAD07A6880235B02134005D0C0460220FFF75EFF031EFAD0BD4602B080BDC04610020B4080B584B000AF786065
:402E400039607B68002B02D07B68012B01D1012300E00023002B02D10020FFF799FD174B1B689B0F9B0701D1C92300E05D23181CFFF798FD124B1B68FB607B681B011A1CA9
:402E8000104B9340DA43FB681340FB600C4B7A681201111C3A688A40111CFA680A431A60064B1B689B0F9B0701D1432300E01F23181CFFF777FDBD4604B080BD0C020B4016
:402EC00008020B40FFFF000080B500AF034B1B68034A1340181CBD4680BDC04610020B400404040090B585B000AF78600B23FC18FFF78FFC031C2370FFF7BEFE031E04D02A
:402F00000123FB60FFF7C8FE01E00023FB607B680D4A13407B600D4B0C4A12680C4911407A680A431A60094B1B68FB68012B01D1FFF788FE0B23FB181B78181CFFF76DFCFD
:402F4000BD4605B090BDC0460404040010020B40FBFBFBFF80B582B000AF7860084B084A11687A68074802400A431A60C046044B1B68044A1340FAD1BD4602B080BDC0466B
:402F800010020B400808080090B583B000AF114B181C00F05FF80F4B181C00F075F8FC1DFFF737FC031C23700B4A0B4B1B78DBB210210B43DBB21370FB1D1B78181CFFF790
:402FC0002CFC00F071F8002000F02AF8BD4603B090BDC046BF5D000093000F4080B500AF0549054B1B78DBB2802252421343DBB20B70BD4680BDC04673000F4080B500AFF5
:40300000064B1B78002B04D1FFF7BEFF034B01221A70FFF7E3FFBD4680BDC0468011002080B582B000AF021CFB1D1A70034AFB1D1B781370BD4602B080BDC04683000F4014
:4030400080B500AF024B1B78DBB2181CBD4680BD63000F4080B582B000AF021CBB1D1A80034ABB1D1B881380BD4602B080BDC04644100F4080B500AF024B1B889BB2181CE8
:40308000BD4680BD84100F4080B582B000AF021CBB1D1A80034ABB1D1B881380BD4602B080BDC04604100F4080B500AF01E0FFF7E1FFFFF7C5FF031C1A1C08231340F6D1A2
:4030C000BD4680BD80B582B000AF786000F04AF87B68181C00F008F8032000F011F800F037F8BD4602B080BD80B582B000AF7860024B7A685A64BD4602B080BD000000204F
:4031000090B585B000AF021CFB1D1A700E23FB600B23FC18FFF77DFB031C23700A4B0A4A12680A491140FA1D1078FA689040021C0A431A600B23FB181B78181CFFF76DFBD5
:40314000BD4605B090BDC04600E400E0FF3FFFFF80B500AF024B02221A60BD4680BDC04600E100E080B500AF024B02221A60BD4680BDC04680E100E080B584B000AF021CE2
:40318000FB1D1A700E4B1B68DAB20F23FB1808218A431A70FB1D1B78DB00DBB208221340D9B20F23FB180F22BA1812780A431A70034B0F22BA1812781A60BD4604B080BD33
:4031C0000000044080B500AF044B1B6808221340DB08DBB2181CBD4680BDC0460400044080B582B000AF78600A1CBB1C1A80BB1C1A887B681A60BD4602B080BD80B582B072
:4032000000AF78600A1CBB1C1A80BB1C1A887B681A60BD4602B080BD80B584B000AF494B1B78DBB21B02484A1278D2B21343FB60464B1B78DBB21B02454A1278D2B21343AD
:40324000BB60BB68434A934207D1FB68072B04D1414BBB600423FB6009E0BA68D4231B019A4204D1FB68042B01D13B4BBB603B4BBA681A603A4BFA681A603A4B1B78DBB247
:403280001B02394A1278D2B21343FB60FA6880239B019A4202D0FB68002B01D1334BFB60334BFA681A60334B1B78DBB21B02324A1278D2B21343FB60FB68304A934206D04F
:4032C000FB682F4A934202D0FB68052B01D12D4BFB602D4BFA681A602C4B1B681B097B602B4B1B68AA2B29D17B68012B26D9214B1B78DBB20E2B21D1264B1B78DBB29BB25B
:403300001B0299B2244B1B78DBB29AB2BB1C0A431A80224BBA1C12881A60214B1B78DBB29BB21B0299B21F4B1B78DBB29AB23B1C0A431A801C4B3A1C12881A60BD4604B058
:4033400080BDC046D9F0FF0FD8F0FF0FDFF0FF0FDEF0FF0F580B0000580D00006C002E4074002E40DBF0FF0FDAF0FF0F0220000078002E40DDF0FF0FDCF0FF0F0F0F000094
:4033800005050000050F000080002E40EC0F00F0E00F00F06DF2FF0F6CF2FF0F84002E406FF2FF0F6EF2FF0F94002E4080B582B000AF021CBB1D1A80BB1D1B88181CFFF742
:4033C000F1FABD4602B080BD80B500AF00F0DEF8BD4680BD80B500AF00F0E2F8BD4680BD80B500AF00F0DCF8044B181C00F09CF8032000F0A5F8BD4680BDC046B535000089
:4034000080B500AF024B181C00F07CF8BD4680BDB535000080B500AF0223FF33181CBD4680BDC04680B582B000AF78602B23181CBD4602B080BDC04680B582B000AF78608E
:403440002B23181CBD4602B080BDC04680B582B000AF78602B23181CBD4602B080BDC04680B582B000AF78602B23181CBD4602B080BDC04680B582B000AF78602B23181C92
:40348000BD4602B080BDC04680B582B000AF78602B23181CBD4602B080BDC04680B582B000AF78602B23181CBD4602B080BDC04680B582B000AF78602B23181CBD4602B01F
:4034C00080BDC04680B500AF2B23181CBD4680BD80B582B000AF021CFB1D1A702B23181CBD4602B080BDC04680B582B000AF786039602B23181CBD4602B080BD80B500AFB4
:40350000BD4680BD80B582B000AF786000F048F87B68181C00F008F8032000F011F800F035F8BD4602B080BD80B582B000AF7860024B7A681A67BD4602B080BD000000204B
:4035400090B585B000AF021CFB1D1A700623FB600B23FC18FFF75DF9031C23700A4B0A4A1268C0218A43111CFA1D1078FA689040021C0A431A600B23FB181B78181CFFF7EC
:403580004CF9BD4605B090BD0CE400E080B500AF024B802252011A60BD4680BD00E100E080B500AF024B802252011A60BD4680BD80E100E080B500AF12F05AFABD4680BDB5
:4035C000002243088B4274D303098B425FD3030A8B4244D3030B8B4228D3030C8B420DD3FF22090212BA030C8B4202D31212090265D0030B8B4219D300E0090AC30B8B425A
:4036000001D3CB03C01A5241830B8B4201D38B03C01A5241430B8B4201D34B03C01A5241030B8B4201D30B03C01A5241C30A8B4201D3CB02C01A5241830A8B4201D38B021A
:40364000C01A5241430A8B4201D34B02C01A5241030A8B4201D30B02C01A5241CDD2C3098B4201D3CB01C01A524183098B4201D38B01C01A524143098B4201D34B01C01A8F
:40368000524103098B4201D30B01C01A5241C3088B4201D3CB00C01A524183088B4201D38B00C01A524143088B4201D34B00C01A5241411A00D20146524110467047FFE7EB
:4036C00001B5002000F0FCF802BDC0460029F7D003B5FFF775FF0EBC4243891A1847C04603460B437FD4002243088B4274D303098B425FD3030A8B4244D3030B8B4228D3A5
:40370000030C8B420DD3FF22090212BA030C8B4202D31212090265D0030B8B4219D300E0090AC30B8B4201D3CB03C01A5241830B8B4201D38B03C01A5241430B8B4201D343
:403740004B03C01A5241030B8B4201D30B03C01A5241C30A8B4201D3CB02C01A5241830A8B4201D38B02C01A5241430A8B4201D34B02C01A5241030A8B4201D30B02C01A57
:403780005241CDD2C3098B4201D3CB01C01A524183098B4201D38B01C01A524143098B4201D34B01C01A524103098B4201D30B01C01A5241C3088B4201D3CB00C01A52419B
:4037C00083088B4201D38B00C01A524143088B4201D34B00C01A5241411A00D201465241104670475DE0CA0F00D04942031000D34042534000229C4603098B422DD3030A97
:403800008B4212D3FC22890112BA030A8B420CD3890192118B4208D3890192118B4204D389013AD0921100E08909C3098B4201D3CB01C01A524183098B4201D38B01C01A21
:40384000524143098B4201D34B01C01A524103098B4201D30B01C01A5241C3088B4201D3CB00C01A524183088B4201D38B00C01A5241D9D243088B4201D34B00C01A5241D2
:40388000411A00D20146634652415B10104601D34042002B00D54942704763465B1000D3404201B5002000F00BF802BD0029F8D003B5FFF715FF0EBC4243891A1847C04604
:4038C0007047C046014B18687047C046181100200E4B70B500251E1C0D4CE41AA410A54204D0AB00F35898470135F8E713F0C2F8084B00251E1C084CE41AA410A54204D07C
:40390000AB00F35898470135F8E770BD806A0100806A0100806A0100886A010030B50024944208D0035D651C0C5DA34201D0181B02E02C1CF4E7002030BD002310B5934203
:4039400003D0CC5CC4540133F9E710BD031C8218934202D019700133FAE770470FB40B4B13B51C68002C05D0A369002B02D1201C00F03EFA05AB201CA168049A019300F0B3
:40398000E7FB16BC08BC04B01847C0461811002070B5051C0E1C002804D08369002B01D100F026FAAC68A3891B0702D52369002B19D1281C211C00F0AFF8002813D00120AA
:4039C000404245E03178002B1BDAA269934211DA221C281C00F048F8013042424241D0B20028ECD10136A3683278013BA360002AE8D10CE023681970236819780A2903D10A
:403A0000E6E723681970236801332360EAE7002B17DAA269934208DB0A2322681370236819780A2911D1281C01E0281C0A21221C00F01AF8013042424241D0B2002806D0BC
:403A4000BDE70A23226813702368013323600A2070BD000008B5034B011C1868FFF798FF08BDC0461811002070B5051C0E1C141C002804D08369002B01D100F0B9F9234BF1
:403A80009C4201D16C6808E0214B9C4201D1AC6803E0204B9C4200D1EC68A369A360A3891B070AD52369002B07D023682269F6B2981A636998420FDB08E0281C211C00F0F6
:403AC0002BF80028F1D0012040421DE0281C211C00F020F90028F6D1A3680130013BA36023685A1C22601E706369984205D0A389301CDB0708D50A2E06D1281C211C00F0E3
:403B000009F90028DFD1301C70BDC046E0690100006A0100206A0100354B70B51D68061C0C1C002D05D0AB69002B02D1281C00F05FF9304B9C4201D16C6808E02E4B9C429A
:403B400001D1AC6803E02D4B9C4200D1EC68A3899AB2110723D4D10607D409220120326037321343A381404240E0530713D5616B002908D0231C4433994202D0301C00F0B7
:403B800021FA002363632422A3899343A38100236360236923600822A3891343A3812369002B0BD1A023A2899B00134080229200934203D0301C211C00F0ACF90123A28918
:403BC000134005D00023A36063695B42A36103E0910700D46369A36000202369834205D1130603D540231A43A281013870BDC04618110020E0690100006A0100206A0100DC
:403C0000F7B58A89051C0C1C13075ED44B68002B02DC0B6C002B1ADDE76A002F17D000232E682B6080235B011A4001D0626D15E0281C216A0123B847021C431C0ED12B6861
:403C4000002B0BD01D2B01D0162B02D12E6000205EE04021A3890B43A38159E0A3895B0706D56368D21A636B002B01D0236CD21A0023281C216AE76AB847A389421C06D1E5
:403C80002A68002A03D01D2A01D0162A19D10022626022692260DB0405D5431C02D12B68002B00D16065616B2E600029CFD0231C4433994202D0281C00F084F900206063EA
:403CC00026E040221343A38122E00F69002FBED00B680F60DB1B01930023920700D14B69A360019B002BB2DD281C216A3A1C019BA66AB047002806DC40220120A3894042A2
:403D00001343A38104E0019B3F181B1A0193E8E7FEBD000038B50B69051C0C1C002B01D100201CE0002804D08369002B01D100F05FF80B4B9C4201D16C6808E0094B9C42FC
:403D400001D1AC6803E0084B9C4200D1EC680C22A35E002BE4D0281C211CFFF751FF38BDE0690100006A0100206A010008B5024900F0AEF808BDC046153D0000002310B577
:403D8000041C03604360836081814366C281036143618361191C08225C30FFF7D7FD054B24626362044BA362044BE362044B236310BDC046A1460000C94600000147000002
:403DC0002D47000070B568254B1E5D430E1C291C743100F03DF9041E08D000212A1C016046600C30A0606832FFF7B0FD201C70BD836913B5002B28D18364C3640365134B64
:403E0000134A1B6882620193984201D101238361041C00F01FF86060201C00F01BF8A060201C00F017F80421E06000226068FFF7A5FFA06809210122FFF7A0FFE0681221C7
:403E40000222FFF79BFF0123A36113BDDC6901006D3D0000F8B51D4B061C1D68AB69002B02D1281CFFF7C4FF4835AC686B68013B05D40C22A75E002F10D06834F7E72B6813
:403E8000002B06D1301C0421FFF79CFF2860002801D02D68E9E70C23336016E00123201C5B42E3810233A38167662760A760676027616761A7615C30391C0822FFF746FDE8
:403EC000201C6763A763A764E764F8BDDC690100F7B5041C071C002601914834002C16D06368A5680093009B013B00930DD4AB89012B08D90E22AB5E013304D0381C291C5B
:403F0000019B984706436835EDE72468E6E7301CFEBD0000F0B58B8991B09B0706D50B1C47330B600B6101234B6145E00C1C0E23C95E061C002904DA8023A5891D4010D150
:403F40000CE001AA00F01EFC0028F5DBF023029D1B021D40194BED186B425D418027FF0001E000254027301C391C00F071F800280CD1A3899A051FD402221343A381231C1B
:403F80004733236023610123636115E080220C4BB362A38920601343A38120616761002D0AD00E23E15E301C00F0FEFB002803D00122A3891343A38111B0F0BD00E0FFFF6A
:403FC0006D3D000030B500293ED004390B68002B00DAC9181D4A1368141C002B02D14B60116031E099420DD208680A189A4203D11368C3180B6053684B60216024E08A42B4
:4040000003D8131C5A68002AF9D11D685C198C420BD10968691858181960904214D110685268091819605A600EE08C4202D90C23036009E008680C18944203D1146852687E
:40404000001908604A60596030BDC04678220020032370B5CC1C9C430834051C0C2C01D20C2405E0002C03DA0C2300202B6042E08C42F9D3204A1368101C191C002913D02F
:404080000A68121B0DD40B2A02D90A608B181FE08B4202D15A6802601BE04A685A600B1C17E00B1C4968E9E7144E3368002B03D1281C00F0E3FA3060281C211C00F0DEFA8D
:4040C000031C421CD0D00322C61C964386420AD11C60181C07210B301A1D8843821A0AD05142995007E0311A281C00F0C7FA431CBAD0331CECE770BD78220020742200204A
:40410000936810B5013B9360002B05DA9469A34208DBCBB20A2B05D01368581C10601970C8B201E0FFF7A0FC10BDF8B5061C0F1C141CD518AC4208D02178301C3A1CFFF78A
:40414000DFFF0134431CF5D100E00020F8BD0000F0B59FB0061C0F1C02920593002804D08369002B01D1FFF743FE794B9F4201D1776808E0774B9F4201D1B76803E0764B53
:404180009F4200D1F768BB891B070AD53B69002B07D0002306AD6B6120336B761033AB763DE0301C391CFFF7B7FC0028F1D001204042CAE0059A111D12680591002A7EDBCC
:4041C0000992013423782E2B00D189E021786348032200F00FFB002808D0604B0134C01A40238340181C2B68184328602178631C5B4806220293297600F0FCFA002800D1DE
:4042000091E0584B002B00D084E00722059B07339343083305936B69039A9B186B61029C2378002B04D1029BE31A049311D003E0252BF8D00134F3E7049B301C391C029A3E
:40424000FFF773FF431C7BD06A69049B944663446B612378002B73D00122002352426A6002A95432521801342B60EB60AB601370AB6521783C48052200F0BCFA002809D091
:40428000394B0134C01A01238340181C2B6818432860EEE72B68DA0604D55322202102A8121811701A0704D553222B2102A81218117022782A2A00D17CE7099B05E052425F
:4042C000EA60022213432B607BE72278303A092A04D80A214B4301349B18F6E7099371E763782A2B09D1059B02341A1D1B680592002B0DDA01235B420AE0002301342278A8
:40430000303A092A04D80A214B4301349B18F6E707935BE705AB0093301C291C3A1C134B00E000BF07E005AB0093301C291C3A1C0E4B00F08BF80390039B013300D06AE720
:40434000BB895B0600D532E70B981FB0F0BDC046E0690100006A0100206A0100466A01004A6A010000000000406A01002B410000F7B5171C01930A698B6800900C1C934262
:4043800000DA131C221C3B6043321278002A01D001333B6023689B0602D53B6802333B60062523681D401ED0231C43331B785A1E9341226892061CD53020E1184031C87042
:4043C000211C5A1C45310978A21840320233D1700FE0221C0123009801991932089EB047431C0ED00135E3683A689B1A9D42F0DBDAE7221C009801994332089DA847431CAE
:4044000002D10120404220E006232068E1683A6803400025042B03D18D1AEB43DB171D40A3682269934201DD9B1AED180027AF420ADA221C0123009801991A32089EB0475F
:40444000431CDED00137F2E70020FEBDF0B58BB006920A1C43320793059004920A7E0C1C109B6E2A00D1A8E011D8632A22D009D8002A00D1B2E0582A00D0C2E045310A7065
:404480007C4A4FE0642A1DD0692A1BD0B9E0732A00D1A7E009D86F2A29D0702A00D0B0E0202209680A43226037E0752A1FD0782A33D0A6E00E1C1A684236111D196013687B
:4044C0003370A1E021681A68080606D4490604D5111D19600023D55E02E0111D19601568002D3BDA2D23049A6D42137036E021681A68080606D4490604D51568111D1960C3
:40450000ADB202E0111D196015685A4B227E03930A276F2A1DD108271BE0221C782145321170554A19680392081D226818600D68100602D4500600D5ADB2D30702D52023CF
:404540001A4322601027002D03D1202322689A432260231C002243331A7002E00A27454B03936368A360002B03DB0422216891432160002D02D1049E002B0ED0049E281CF2
:40458000391CFFF7A3F8039B013E5B5C281C3370391CFFF715F8051EF1D1082F09D12368DB0706D563682269934202DC3023013E3370049B9B1B23612BE009681A680806E1
:4045C00007D4490605D5111D19601368A28A1A8004E0111D1960136862691A600023049E236116E01A68111D196016680021301C626800F0FFF8002801D0801B6060636861
:4046000003E0261C42363270012323610023049A1370079B05980093211C069B09AAFFF7A7FE431C02D10120404221E0236905980699321C079DA847431CF4D023689B0782
:4046400005D4099BE068984212DA181C10E00025E368099A9B1A9D42F3DA221C0123059806991932079EB047431CDCD00135EFE70BB0F0BD516A0100626A010038B500237A
:40468000064C051C081C2360FCF764FB431C03D12368002B00D02B6038BDC046A422002038B50C1C0E25495F00F0B0F8002803DB636D1B18636503E0A289024B1340A3813E
:4046C00038BDC046FFEFFFFFF8B51E1C8B89051C0C1C171CDB0505D50E23C95E0022022300F074F8A289054B281C1340A3813A1C0E23E15E331C00F01FF8F8BDFFEFFFFFB4
:4047000038B50C1C0E25495F00F060F8A389421C03D1054A1340A38104E0802252011343A381606538BDC046FFEFFFFF08B50E23C95E00F015F808BD38B5051C0020074CC6
:404740002060081C111C1A1CFCF7E4FA431C03D12368002B00D02B6038BDC046A422002038B50023064C051C081C236000F062F8431C03D12368002B00D02B6038BDC04689
:40478000A422002038B50023064C051C081C111C236000F057F8431C03D12368002B00D02B6038BDA422002038B50023064C051C081C236000F04EF8431C03D12368002B15
:4047C00000D02B6038BDC046A422002038B5051C0020074C2060081C111C1A1C00F042F8431C03D12368002B00D02B6038BDC046A4220020C9B28218904204D003788B42A3
:4048000002D00130F8E700207047000038B5051C0020074C2060081C111C1A1C00F02AF8431C03D12368002B00D02B6038BDC046A422002058220120014B40421A60704766
:40484000A422002058220120014B40421A607047A42200205822024B00201A607047C046A422002058220120014B40421A607047A422002058220120014B40421A607047B4
:40488000A4220020134A1088810703D08107890F401A001D11791030484381B25088820703D08207920F801A001D800040180A494030098980B2CA0701D0503080B289074B
:4048C00006D504495422091F09785143081880B270470000CE0D00208411002010B501F0FDFE10BD10B501F00FFF10BD10B501F013FF10BD10B500F04FFA10BD10B50749A0
:40490000044609780220002907D1204601F04CFF002802D120460AF0B9FA10BD380F002070B504460120002C12D02368002B0FD0616800290CD0074D062228892081184678
:404940002968FEF7FAFF6968606809780170002070BD000084110020FFB585B0002768460E9D07734C481C460078002802D0082009B0F0BD10990F9801900095029105A89C
:4049800007C800F0FBF80028F2D16946264603AB84460873002C19D0002115E08A00B75A082F09D990198078002805D0083FB7521878401C187005E0002915D00027B752E8
:4049C00090198770491CC9B2A942E7D360460028CED10F9800280AD0109901F033FA0006000E04D00120C3E701208446EEE701F08BFE2948002101610C30059901602188F0
:404A00008180022D03D3A1798171A17AC17100211EE0481C19E082008B00A75AE65ABE46BE4211D26F463E80B4461E190296B678BE7001967646E6521719029EBB78B3701D
:404A40006646A652019EBE70401CA842E3D3491CA942DED3114800906846037B22460799069800F013F9002882D168460A4C007B60700A4801F078FE0028B4D1204607492B
:404A80000C3007F02DFA0028ADD107F047FA0028A9D1012121706BE7C80D002084110020F8B5054633480E460078002802D002242046F8BD002E5BD000242F49002D16D0EB
:404AC0002A89D0070DD02868002808D003881B3BE12B04D24088FB2801D81B2801D2012409E0900707D56868002804D1F7E70020088108604860002CDAD11F482F890781BF
:404B00001C481B21801D018041800421017119490020891C0870F80705D016480622801D2968FEF70AFF1449B80703D56A681148127882700F480D46801D0860001F486029
:404B400001F058FE0B48801D01F046FE28890DF08BFD28890DF0F2FE03461033FFF792FE1F21C018890140180249308088809FE701249DE7C80D002084110020FFB584468F
:404B8000384F1C460020BB883F78054602460646002F11D100290ED0029999420BD36146002908D0002C06D00A99002906D02E4B0B99994202D2012004B0F0BD002144E0C8
:404BC000AB001F19BF78002F3BD0E35A002B38D07B43591889B22B0000F04AF8050410161C253100A7782388BC46FF27233BEB37BB4222D26346032B1FD322E0A388002B05
:404C00001FD0302B19D31CE02389002B19D0282B13D316E0A289002A13D01346134F233BBB420AD20DE0268A002A0AD033460F4F233BBB4201D2964203D901200EE00020A0
:404C400001E000280AD16D1CEDB2099B9D42B7D31C2463435B1802998B42ACD89642AAD8AAE70000C80D002079020000BAFF000030B47446641E2578641CAB4200D21D4663
:404C8000635D5B00E31830BC18470000FFB583B0002469460C801F4606468C80002806D00598002803D004983043800701D0012467E0002FFBD03449049809888842F6D3F0
:404CC000FEF79EFBFEF786FB00F010FC002856D100F06CFD002852D12C49084601F0E6F805042D0C4BD12A480499066081800021C18007810C98007AC00704D0684601F019
:404D00001CFD040007D10C98007A800703D501A801F01CFD0446BF1DFEB2002C21D13146059800F05DF804001BD10DF015FE0406240E16D16A461088928808368518144A43
:404D4000F1B29088D288AEB29319984207D3401B801A80B201F09AFB050007D000E0FF25012400F05BFA002D04D008E0F8B200F01BF9F6E700F07EFA06490120087000F0B3
:404D8000C7FB204607B0F0BDCC0D0020CD4E000090110020DC0D002010B503480078012801D101F015FA10BDDC0D002070B5084B0446DA889E8800205518B54206D81D68FF
:404DC000AA182260DA885118D98070BD032070BD90110020014800897047000090110020F0B587B007460D4600208900009006916846FFF7DBFF844600285DD130480099C8
:404E00000160002117E02E4B88001A680629115406D22C4C0419667882185670628805E0C419203CA67A8218567022891B68C018491C4280C9B2A942E5D300242DE0601CB7
:404E4000C2B2059025E01E4FA30039689600581840887118039604904E88B04217D938466F46FE80B6464F786E4677710297049F4F800168039F5E18767879184E700168F5
:404E8000764659184E800068029F18184770521CD2B2AA42D7D30598C4B2AC42CFD36046002809D168460699FFF780FF8446002802D1054900980860604607B0F0BD000055
:404EC000E00D0020A86A0100E40D00207047000010B5002809D005494A68002A05D0011F08788000105801F07FFA10BDE00D002010B50446FFF76EFFC0B2801DA0420CD3F7
:404F000007484068002808D0A100405801F0DEF9002801D00470001D10BD002010BD0000E00D0020F8B516460D460446FFF752FFC0B2801DA04203D20020C0430090F8BD0D
:404F4000B2B2E9B2684601F0E7F90099481C03D0024AA000526811500098F8BDE00D0020F8B50746FFF736FF801DC6B20A49002005460C680DE06178002907D06188B9426C
:404F800002D32078FFF7B4FF002804D1241D6D1CEDB2B542EFD3F8BDE00D002010B5002801D0FFF795FF10BD70B506460948002504680BE06178002905D062882078121D1F
:404FC0000023FFF7AFFF241D6D1CEDB2B542F1D370BD0000E00D0020FFB581B00A9C16002BD000F0F1F80546042826D0214F002C0BD02046FFF7B4FF2901C9194860002848
:405000001BD022460499FEF798FC1A4928010E5046187481019805707D20029CC000444300F0C0F8009004280AD000F055FAA0420ED800F051FA201A06E0FF2005B0F0BD09
:40504000204600F0ADFA0020B08135720020F5E700F042FA074600F0B9FA381B87B23846012100F0EFF800980101024808188781E6E700009C110020F8B50601174834181B
:40508000217A042903D0A089002802D018E00020F8BD00F021FA054600F098FA00F0A2F804280DD001010D480F18B88941198DB2002100F0C7F80020B881284600F070FAB1
:4050C0006068064D002801D0FFF768FF042020720020A8516081A081D9E700009C110020FEB500266A46304601232549050169180D7A042D02D0898900291BD00021115493
:40510000401CC0B20428F0D300246846005D002830D01B482101081841894768056802910021016041600422418102728181002E02D015E01354E3E700F054F804280ED050
:4051400001010F480818019086890021304600F079F8019800218181304600F021FA0126002D07D038460299A847002F02D03846FFF714FF641CE4B2042CC6D3FEBD00008C
:405180009C1100200EB5002005216A460090118150810348694600680EF053FA0EBD0000E80D0020074A0020010189180B7A042B02D08989002903D0401CC0B20428F3D381
:4051C000704700009C1100200549002002015218127A042A03D0401CC0B20428F6D370479C11002030B50A4B04200A4C00210A011219157A042D06D09289002A03D09A42E7
:4052000001D808461346491CC9B20429EFD330BDFFFF00009C1100207047000030B50020074C05460423020111190B72A5504D60401C4D81C0B28D810428F4D330BD000010
:405240009C11002030B5094C00231A011219157A042D04D09589002906D02D1895815B1CDBB2042BF1D330BD2D1AF7E79C110020002070471CB5002469460C701420019020
:405280002346054A05480EF0E1F904480068401C00D1FF2420461CBDF1520000E80D00203EB5124A0146FF2000230124126800290DD0012914D0042908D10420694600937F
:4052C00008814B8110460EF0BCF980B23EBD6846009304814381694610460EF0ADF9F4E768460093048143816946EBE7E80D002070B545890468416800890300FFF7B8FCB7
:4053000008280509091E22282628002005F0FAFC1EE0022908D0C8B22A4621460CF054FB2046FFF73BFE13E002202A4621460CF04BFB2946204600F00DF809E000200DF035
:405340006FFE05E02046FFF7CBFE01E0FEF7D6F8002070BD014B0022DB681847EC0D002070B5448905680089022803D0032809D0FF2070BD2246094C0023A46829460120EB
:40538000A04708E0FFF7AEFA241DA2B200232946022006F056FC002070BD0000EC0D002070470000024800214160018041807047EC0D002070B50C46002186B016460391F6
:4053C000012802D0022859D116E003A9012006F098FC01281BD1039D324621462846FEF7ACFA0095287801900220694608814E816846FFF7B5FF41E0214D002B686809D0CA
:40540000049004A9022006F07CFC01281DD0022006B070BD002812D0298840182146FEF78CFA28880024801980B228806988091D884206D12C801348FFF792FF03E00320F8
:40544000E6E788421AD96C6018E004986860E278A378110219430B4A698000231060E3565360032313815181A1788170E178C1706178417021780170042028800020C7E78B
:40548000EC0D0020DC1100203EB515460C46022803D004280CD000203EBD0091019002206946088107484A8100680EF0CAF807E00CF08AFA044B0022DB6829462046984779
:4054C00001203EBDE80D0020EC0D0020014AD16090607047EC0D0020034801688068081A0A21484300097047E811002010B5FDF777FF482204490548FEF71FFA034901202B
:40550000C870002010BD0000C46A0100EC15002010B5FDF759FF10BD70B5134C2368002B08D0207B1149C20705D04008400020738868A08070BD88680B4AA18880B2926881
:40554000814203D90A4D691A091802E0814202D2411A5118A160A080A0689842EAD30EF08DF800F013F870BDE8110020C0102E40FFFF000010B508461946FFF7A7FF10BDB9
:40558000704710B5FFF780FF10BD000003480021016041608160C16070470000E8110020024610B5FF20002A0CD0FFF7EFFF064C0321207B0843207310010A21FEF786F839
:4055C0002060002010BD0000E811002000B504480A21806848430209FFF7D8FF104600BDE81100200248007B8007C00F70470000E811002010B544490868002802DA434B43
:4056000001221A70022290430860414800693E49C00B4031096A08425ED0012000F0D0FA3B483C497C30FDF7E9FD37480E216C30FDF7E4FD364820218430FDF7DFFD344877
:4056400014219C30FDF7DAFD3148FF21C131A430FDF7D4FD2E48FF212F31B030FDF7CEFD2B482D49BC30FDF7C9FD29482B49AC30FDF7C4FD29492648491CB430FDF7BEFDC8
:4056800023482749B830FDF7B9FD21482549CC30FDF7B4FD1E4824490830FDF7AFFD1C482249A830FDF7AAFD194821498830FDF7A5FD17481F498C30FDF7A0FD1448192155
:4056C000C9029030FDF79AFDFDF7A6FDFDF7A2FEC0B2022802D00FE0FF2010BD16491748FDF78CFD15481649001DFDF787FD134800210830FDF782FD54200449C043891C04
:405700000870002010BD000000F02E40FC0D002000002E4055650000320300002F3F00003102000010520000EC160000FA12000031D000003AE300009956000080012E4013
:40574000F80F000070B50646581C80B245086D00002408E0304600F0C1F81055000A1119A41C4870A4B2AC42F4D3D80705D0D0182038D15CC47FD454C17770BD30B50A4CDE
:40578000002100195B1E07E0541864782502545C2C430480891C89B29942F5DB994201D1515C018030BD000000102E4010B5FF2000F006FA0F49FF2048700E481021801D45
:4057C00041800121417001700A490020C91C4870FFF710FF04000AD100F01AF907210648FDF7FEFC044807211830FDF7F9FC204610BD0000FC0D0020CC112E4070B50024B4
:4058000005465B1E0AE0284600F068F8010A161971702D1D1055A41CADB2A4B29C42F2DB9C4203D1284600F059F8105570BD000070B500210A4D5B1E0AE0541864782602AF
:40584000545C344346193480001D891C80B289B29942F2DB994202D1515C4019018070BD00102E40F0B50599091FCFB200217E1E0BE0541864782502545C2C43164D451954
:405880002C80001D891C80B289B2B142F1DBFC0712D01C78515C24020F4A0C4381180C809C785D78001D210280B2294384182180001D80B2D9780CE059781A7809021143E3
:4058C000054A84182180001DD9789B78090280B2194380180180F0BD00102E40014940180088704700102E4010B50B490020487000F08EF8002000F089F9002000F076F9E7
:4059000007210648FDF76CFC044807211830FDF767FC002010BD0000FF0D0020CC112E4010B506480078012803D102210448FDF765FC02490020C91E087010BDFF0D00200F
:4059400070F02E4010B50B46062812D006DC01280CD0032801D1FFF7C7FF10BD0A28FCD00B28FAD105480078107010BDFFF71EFF10BD1146184600F065F910BD020E0020D8
:40598000F8B5204DAC6A0127A0071F4E002816DA307806280ED1286A384328621B480069F903084381B219481030FDF727FC042000F006F9134802212830FDF711FCE00748
:4059C00011D0062000F0FCF80F49FF20C91E48707078002802D1686B38436863094801212830FDF7FDFBE0050BD53078042802D1052000F0E5F80348FF2101312830FDF7AC
:405A0000EFFBF8BD40F02E40FF0D002000002E4010B503212348FDF7F1FB0120FDF7C6FC20483038406A204C80076178800F890001431C480C38FDF7E1FB6078002808D092
:405A4000401E022181401820FDF730FFC000083800E0B82081B21548FDF7D0FB1348032109021438FDF7CAFB10481149B830FDF7C5FB612189010F48FDF7C0FB0D4803211A
:405A8000001FFDF7BBFB0C490C48FDF7B7FB0B480B496038FDF7B2FB084801218838FDF7ADFB10BD70F02E40020E0020D8102E4090890000041E2E40FF0F000058122E4070
:405AC00020900000044800684007400F022801D0002070470120704700010B4000B5FFF7F1FF002805D009480168C908C900016000BD0748016A490849000162054801693E
:405B00000122D2039143016100BD000000010B4040F02E4000002E400849087806280BD148780749002803D1486B400840004863C86A01221043C86270470000FF0D0020A0
:405B400040F02E400148007870470000FF0D002002484078022800D001207047FC0D002000B50300FFF784F8080D050D0B070507090D012000BD032000BD042000BD0220A0
:405B800000BDFF2000BD0000074A9168D26889B2064B92B2994204D105498A4201D1012100E000210170704780002E4033D000003FE300000149487070470000FF0D002019
:405BC00010B50446FDF706FC072C01D9FF2C01D102480470FDF7F8FB10BD0000FF0D00200149487070470000FC0D002010B5064A012805D01921C9021046FDF7FFFA10BDEE
:405C00001D21C902F8E7000090002E4010B50A4A141D012808D009491046FDF7EFFA08492046FDF7EBFA10BD04491046891CFDF7E5FA0349491DF3E788002E4031D00000B3
:405C40003AE3000070B50C460546FDF7E3FBC0B202280E49287804D0FF2810D04C280CD810E0FF2809D10A4AD0680004800F032801D0087807E09069000A553803E0087847
:405C8000207070BD4F382070087070BDFE0D002000002E40F0B50122002830D000292ED00424420600D00524792342065B06D21800D0641C034600221EE00C2516466E432C
:405CC000104D00277519AF720E4F002ABB51696007D0661EB24209D10B4E86197606760E05E05E06760E8027BE1B00E080269B198919521C2E81D2B2A242DED3002210461D
:405D0000F0BD00007414002079020000074900200C2242435218927A012A05D0401CC0B20628F5D3002070470120704774140020F8B50F000446164609D0184D184968680E
:405D4000A04202D94018A04201D38E4201D90120F8BD39462046FDF7E1FD00281BD0324639462046FDF7E9FDF0B200210C224A43521913895668F718A74208D90127A41BD4
:405D80001B1B9772834206DAC01A1469C0B2491CC9B20629EAD30020F8BD0000741400207902000010B500F05DF80748054AC16806480C46FDF7C1FD04492046FFF76AFF3D
:405DC00010BD000079020000080E0020F8110020002070470020054A002902D0012902D002E0506000E0906000207047080E002070B5084C154608460549A26889182A46C5
:405E0000FDF79BFDA0684019A06028B270BD0000F8110020080E00203EB50A226946FFF7E7FF044606480A2200686946FDF776FD002802D00020C0433EBD20463EBD0000AA
:405E4000080E0020002802D0044A914201D2FF20704703490A61C8600020704779020000080E0020024800214160816070470000080E002070B5074C154605486268801865
:405E80002A46FFF755FF60684019606028B270BDF8110020080E002010B503490A220968FFF7E8FF10BD0000080E002010B50F4A002313600E4A13600E4B18600E4801604C
:405EC0000E49012008600E490860000290600E490C4808600D4914300860FF381538506000F0BCF800F0CAF9002010BD340E00201C0E0020480E00204C0E0020380E002082
:405F0000280E0020BC1500202C0E0020400E0020014610B50020002910D0094B1A689C685118A14209D25868196080188A0704D08A07920F891A091D196010BD002010BDB8
:405F40001C0E0020F8B50024164E671E321F3D463168136806E01422624310328A58521C1BD0641C9C42F6D36A1C14D02C461422544322460C3288500C214843FFF7C8FF34
:405F80003168002808510AD031680020103408517068401C70602846F8BD2546E4E73846F8BD00002C0E0020F3B50026F64381B000281BDB1E490968884217D80299002902
:405FC00014D01B4F142204463F1D54432546396810354859401C09D0FDF7FCF938682F1F4159C359994203DBFDF7EEF93046FEBD214608310091465801590C20704308183F
:406000000C220299FDF799FC0948761C001D0068C159B14200D100260549009A091D865008684159491C4151FDF7CEF90020FEBD280E0020002803DB07490968884202D965
:406040000020C043704704491422091D096850431030085870470000280E0020F0B500200D4A451E0346171F50600FE014260146714314680E1DA3510C46166808343351EF
:406080001668083435511468401C635039688842ECD30020F0BD00002C0E0020F3B50026F64381B0002841DB2349096888423DD8029900293AD0204F142204463F1D5443DC
:4060C0002546396810354859401C2FD0FDF782F93868415900292BD0211D009146580C21005971430F46C1190C220298FDF725FC11480021001D0068761C00590C34C019D0
:406100000160416081600C48001D00680159B14200D100260849009A091D865008684159491E4151FDF750F90020FEBD3046FEBDFDF74AF9FAE70000280E0020FEB50446C1
:406140000D4600201E49089E0860471E009001900290002C11D0486885420ED2002A0CD0002E0AD0642E08D808460C3001681C2068430C18207A002801D03846FEBD012050
:40618000226020721846FFF7DDFE6060401C13D06681A6810A4827610C3067610179A94200D205710021684601810A462846029B00F040F82846FEBD00202072DDE7000091
:4061C000340E002038B50124009400F039F838BDFEB50027164EFF433D4600240EE01C20316860430818017A002906D04068FFF721FF002801D0254603E0641C3079A0424A
:40620000EDDA681C12D01C2130684D434419FDF7E1F869466068FFF741FF0546FDF7D4F8002DD9D1216868468847D5E7FEBD0000400E002038B50024009400F001F838BDA5
:406240001FB500220C49541E0A60002811DB496888420ED808491C220C31096850430818406801A9FFF7A0FE401C02D0002004B010BD2046FBE70000340E0020F0B500216D
:40628000114A4D1E174611710C3F0B46BD6016E008461C2460431668041D355114680646235014680836A3551468361DA353044616680A34335318301468491C2550786878
:4062C0008142E5D30020F0BD400E002038B500210091002811DB0F49097888420DDA0D4D04010C3529680859002807D0201D0818694600F06FF9002801D0002038BDFDF7B4
:4063000069F828680F34015D491E0155FDF75CF8009838BD500E0020F7B582B0002502986E1E06602E48D21C024017462D4A2C4610460C380178106805E02301C358002B66
:406340000FD0641CE4B28C42F7D3711C28D03401211D40180191039900F02AF900281FD101E02646F1E71F48016820460C300F521C480399026820460E301154194803997F
:40638000026820460F3011540398784300F0A0F8144900280968085102D00024009011E001251AE00F48016801980818009900F02CF9002801D0012502E00098C01900907C
:4063C000641CE4B203988442ECD3002D05D10298066004480179491C0171284605B0F0BDFCFF00005C0E0020F8B50D4600216A468C461180002839DB23490978884235DA3C
:40640000214B04010C3319680A59002A2ED020460C300B5A801C0E5C184670438018954224D3854222D2002006E007465F43BF18AF4206D0401CC0B2B042F6D36046002877
:4064400014D0114E271DC8190C366A46294600F006F900280AD168460088012808D030682946C01900F0D1F8002803D00120F8BD0020F8BDFCF7AEFF30680F34015D491CAD
:406480000155FCF7A1FFF3E7500E0020F8B50F46002400F031F8002817D10C4900220B460C334A600EE021011D680E466A501D680C36AA53B61C1D680F31AA551D68641C99
:4064C0006A54E4B2BC42EED31A71F8BD500E002000280BD0C01C074A81085068890053884118994203D89368516018187047002070470000500E0020F8B5064600200F4D8A
:40650000009029700C0121466846FEF74FFC00280CD129460C3100980860301B001F84B221466846FEF742FC002801D0FF20F8BD6C800098A8600020F8BD0000500E00208B
:40654000F8B5002827DB19490978884223DA174C05010C342168485900281CD028460C30085A009028460E300E5C401C0E5420682F1DC01900F064F800280CD12068002499
:4065800045590EE0094829460C300068C01900F03CF8002801D00120F8BD00982D18641CE4B2B442EED30020F8BD0000500E002030B50D4604000BD0A800FFF789FF606025
:4065C000002805D000202570C0436080002030BD012030BD70B50D46040005D0002D03D00220205E002801DA012070BDFCF7F2FE0221615E60688900405828606088401E2D
:406600006080FCF7E1FE002070BD70B50D46040007D0002D05D002212078615E401E814201DB012070BDFCF7D5FE6088401C00B26080616880000D50FCF7C6FE002070BDFB
:4066400010B5040009D0227800216068FDF77EF90020C0436080002010BD012010BDF0B500231D46002802D00224045F0AE00120F0BD46689F00F6598E4201D1012503E0FF
:406680005B1CDBB29C42F4DA15700020F0BD00000148007870470000640E00207CB505460024FEF71FF9A8796946087000A8062229460130FDF741F90021684604F0E8FD93
:4066C0000C2804D0072804D01F2804D004E0022402E0042400E0272420467CBD10B502280BD0032802D0042809D102E000F048F905E000F0F3F9FF2801D100F003FAFFF719
:4067000021FAFFF72DFA10BD10B500F02BFAFFF719FAFFF725FA10BD70B504460025FEF7E1F8002C06D0A079012803D8214602F0CDFC00E00125284670BD014601200029BA
:4067400002D05020088000207047000001460120002905D003485422007850430880002070470000660E002010B502460D49FE204870032410460DF087FA002810D10DF019
:406780002BFA00280CD105F019FB002808D100F0F3FB002804D104F0FFFF002800D10024204610BD640E002070B50025044600280ED0A07901280BD8FEF794F8A079002875
:4067C000204602D003F05EF803E003F033F800E00125284670BD0000014610B50120002904D006220248FDF7A8F8002010BD0000680E002001460120002903D00878024994
:406800000870002070470000660E002010B5FFF799F9012801D1FFF79BF910BD38B504460120002C20D0617801291DD800290BD0FF25E535FEF756F80C4828180088C0B257
:406840002070072803D00EE0FF25CD35F2E70020694608706846FFF797F969460878012801D108202070002038BD000000102E40F8B504460120002C26D06178012902D991
:406880002278092A20D8002905D0FF25E5352078092803D004E0FF25CD35F8E708202070FEF720F82078114F114E08280DD00020FFF7ACF970780128207810D00D4969180E
:4068C0000880FE2070700020F8BD0120FFF79EF90720B8810549203188800120F2E7B8810248217820308180EBE70000C0112E40640E002000102E4070B50E46050001D0B1
:40690000002400E00C4C002C11D0E28A500609D5D107C90F022003F053F8E08A40218843E08204E0D107C90F012003F049F83146284602F027FD70BD54160020F8B50546B3
:40694000002004460D4E009013E022466946284601F04AF80098002801D00DF077F9A878214602F0FDFAA878214602F0EBFA641CE4B2308AA042E8D8F8BD00000C170020E1
:40698000FEB54E4DFFF7DEF8012849D14C480078002845D002F07EFC002841D004F01AF900283DD0474C6078C00703D000F0E6FC012835D0207E00287DD160780026002811
:4069C0005BD0000706D540488089070B00F02EF9384370D13B484178684603F065FF044628793A4DA9784018C1B2A14261D802F051FC00285FD0344860300089314F01901D
:406A0000203702F09DFA6846008802F0C7FA02F057FB2F490988884203D10120FFF7D0F849E02C49012008702648807B00281BD00198002818D04037F87E002814D1224803
:406A4000603000884000A0420AD96878002807D102F0E4FF2049088A03221202104308822878002800D02E7002F0C6FA0120FFF7A1F800F0F5FB174C15E002F00BFC002842
:406A800019D0102402F01CFB214602F011FA02F085FA104C0120207002F0AEFA0020FFF789F800F0DDFB20780128B6D1FFF716F826700020FEBDFF20FEBD00002C160020DC
:406AC000FC0D002034160020A0102E40740E0020860E00206E0E0020E0112E4010B50848FF244078002809D102F0D4FB012805D1FEF716FF0720FFF763F80024204610BD09
:406B00003416002038B5FFF71DF8012801D0002038BD02F0BFFB00280AD0114C6078C00703D000F02BFC012802D0207E002801D0FF2038BD617800290FD0684603F0B4FE76
:406B4000022806D96846008802F028FA012002F059FA0320FFF734F8D9E70020F7E700003416002038B51E4CFEF7ECFF042813D0052811D0062812D003282AD007280AD15C
:406B800000206946087002460120FEF7DBFEFEF7D9FF0128FBD138BD00F082FB38BD02F049FA00F07DFB02F0C5FA8007800F0228F4D10C4841880029F0D05B21095D0029DA
:406BC000ECD101210170A07D0140022002F0F8FE38BD02F033FA0120FEF7F2FF38BD000054160020740E0020F8B50646002402F055FF0546304602F06BFF03460A48002165
:406C0000068A0DE001228A401046174628401F40002803D0002F01D1224394B2491CC9B28E42EFD82046F8BD0C17002070B500252C460A4E03E0002C01D0002000E030468A
:406C40000079002803D02046FFF7CEFF0543641C2406240EEFD0284670BD0000541600201CB50020694648706846FFF7D7FD01AA69460A20FEF766FE6946042008561CBDB8
:406C800010B50C4601F082FA002809D00179002906D0C1788078224602F0FAFB002010BD022010BD01480078704700002C1600204030C07E002800D00120704700B500F07D
:406CC00001F800BD8C2148430749084A40186030417F491CC9B24177D289914201D300214177C8B270470000341600200C17002013B501F04BFA04000BD001F0E8FD002830
:406D000007D0214601AA0A310620FEF71BFE00201CBD02201CBD000010B50C4601F036FA00280AD001F0D3FD002806D0224604490A20FEF707FE002010BD022010BD000059
:406D400015160020F3B581B0074601460026029802F09CFE0446002F01D0002500E0154D002D21D0284601F047FA032C04D13946029802F0E7FE06463846029902F0E2F87B
:406D8000032C06D0002C10D00121384601F03AFB03E03146384603F0D1F8284601F0C0FF0221284601F0D6FFFEBD3846029902F0C9F8FEBD5416002010B5044603F008FD20
:406DC000002801D00C2010BD2078611C02F062FCFF2801D01F2010BD02F0A8FCFF280AD02178621C02F036F8044821780068026B601C904710BD072010BD00008C0E0020E2
:406E000010B503F0E5FC002801D00C2010BD02F023FC03480068C06A8047002010BD00008C0E002070B50D46044610210CF04EFE1021601806460CF049FE334610221946EE
:406E4000204603F0F3FC102130460CF03FFE02202870204604F0F8FB70BD0000F8B504464078217802028006870FE0781143A67809050002090D0643084601F087F9002135
:406E80000546F2B2002812D0002C10D0022F0ED0032F0CD0002A0AD00279092A07D0002A05D0134A5A23527E1B5C9A4207D82889002104F0FEFA20460CF0C8FEFF2100291D
:406EC00014D10C48224600682946436930469847C0B2FF280AD128464030817EF2B2491C8176FF232146284600F0DDF8F8BD0000EC150020A40E00200020704710B504467E
:406F000003F066FC002801D00C2010BD2078611C02F0C0FBFF2808D002F0F8FA044821780068426B601C904710BD1F2010BD00008C0E002010B504F02FFC00F057F9002041
:406F400010BD10B5044600786178E2780843A17811430843217908436179084305D003F029FC002803D00C2010BD122010BD204602F088FC002010BD10B5FCF74BFA02F0E5
:406F8000AFFD044803F07AFD02F0CAFA012000F003F810BDFC150020F1B586B003A8009005A8019025489F22817A114081726846FDF7B6FC00283FD169460989C90705D07B
:406FC0001F4806990068C2686846904769460989890706D500282FD11A480068816A06988847002828D1184E0025757075737571F575357675767575B570F570B571374608
:40700000F5730120BC3738731F20F880FF2130467972A0300175457500F076FA00242046069901F0FFFB002803D1641C2406240EF5D0FD72BD72B57307B0F0BDEC15002095
:40704000A40E00208C0E00203416002070B505460E46084602F022FD0446304602F038FD0121A9400A46224001400A4301D0012070BD002070BD10B50446084602F028FDE5
:407080000121A140014201D0012010BD002010BD10B5FEF757FD032804D101F0CFFF0120FEF78EFD10BDFEB51C4616460F46054601F036FEA878FFF701FE02460190334606
:4070C00039460094284600F00DF8002808D1A8780199FFF711FCFF2C02D138460CF0B6FDFEBD0000FFB585B005460E980C46FF2810D02B49C00009680A5840180179C07931
:407100005278814201D9012601E09006860F6846038108E06078A1788006860FE0780002014368460181284601F0DCFB070007D021462846079A00F0EBFB384609B0F0BD7D
:40714000304600F099FC04AE0346039002AA29460096204600F025FB3C20405D002818D0284601F0BFFB012813D0684600890096C0B20190A878231DFF22079902F0B6F8A0
:4071800068460089039BC2B2A878079902F0F6FBD3E7684600890021C0B20091E9E70000A00E0020F8B5104F002500242846FFF71BFD060012D00EE03046E040C007C00F5D
:4071C00007D02146284601F0B3FE21462846FFF7B9FD641CE4B2388AA042EDD86D1C2D062D0EE2D0F8BD00000C17002010B502F097F90020FFF7D0FE0CF0BEFD002010BDD1
:40720000F8B5002400F0B4F80123012800D10124104F00203E4620360425082203E0002801D0002100E031460979002907D001290BD002290BD0114681402143CCB2401CBB
