:400000000040002011000000C5070000C507000008B500F0F1FB0000F8B572B6002501225D4B5E4C291C25601A7080225C48D20001F0C8FD8022291C5A48D20001F0C2FD82
:40004000291C281C584FFF25CA594300161CAE43154040194200143701330132FB18BA18934206D05D1E2D781F78AD192F700233F6E704311429E5D1EE224C4B12061A60E2
:40008000992302253C264A4A1B041360494A4A4813604A4A08271360494A1360494A1360494B4A4A1D604A4B1D6013782B4313700378B3431943C9B2017016211378454EBA
:4000C0000B431370444B454A1F60454BC4211A602023444A89021360434A1160434A13608022434B1A60B022424BD2031A608022414BD2011A60D822404B12041A601222BA
:400100003F4B1A6001F0FEF83E4800F0C5FF012001F004F9302000F0E3FF3B4A3B4BFA201A6080233A4ADB0533601368C0001D431560384B384A1A602368BB43236001F0A4
:400140000BF8364800F0FEFF8022C821344B52001A60344B344A49011A60344A1160344A1A608022334B12061A608022324B12031A604022314B1A60314B01321A6080230F
:40018000DB05336003232F4A13602F4A136000222E4B1A60F8BDC0461C700F406CF02E4000300F4000400F40143E0100000002400001024000500F4001700F4010500F4065
:4001C00020500F4030500F402000104000700F4000800F400C020B4000000440060CD8000800044000010440080104401801044000020440080204400C020440080304407C
:4002000030001040001BB7000600008004010B4078002E407C002E406A2D0000DC050000000301400000014040FF00800403014041FF008008010B4000010B402C010140F4
:40024000040101403000304030003140000E3F4010B5064C2378002B07D1054B002B02D0044800E000BF0123237010BDE80F002000000000E83C010008B5084B002B03D0AF
:400280000748084900E000BF07480368002B00D108BD064B002BFBD09847F9E700000000E83C0100EC0F0020A80B002000000000012208B5024B1A7000F0BEFE08BDC0463D
:4002C0000410002030B50C1C9BB0282837D004D801280DD0262814D059E0422838D04C283ED0412853D102222A4801F062FC4EE0002401A8847102F035FC201C00F0D4FB5A
:4003000045E0254B1B78042B41D1002000F04CFB012000F043FE012000F052FB00F0E2FA1E4B1B681B04DB178342F7D100F084FE00F07CFE00F052FE00F070FF27E0002055
:4003400000F0B2FB0023134A1370154A13701EE00020104B0121134A587000F05BFC16E08B89152B13D14D680F4B2A7800211A700E4B642201A81D6001F024FC291C228964
:4003800001A801F016FC0A4801A901F023FC1BB030BDC0463A210020522100200802244045210020462100203E21002040210020EC3C0100FA2210B5084C9200638801332F
:4003C0009BB26380934208D101F01AF943425841C0B201F009F90023638010BD0410002008B501F059F8430514D50B4B1B78022B0CD00A490A4A0B78052B05D01078002890
:4004000002D001330B7001E0002313708020C00001F04CF808BDC04652210020452100204621002008B500F0ADFF0C4800F01EFE0120011C00F0CAFF0120011C00F0DCFFFB
:400440000749012001F004F8012001F059F88020400000F0E7FF00F087FF08BDE1030000FF7F00002E4B10B51A781C1C0120042A0AD00020032A07D1012000F095FA012051
:4004800000F09EFA012208E000F08EFA012000F085FD012000F094FA00222378022B3ED0204B214C1B78012B19D1204B1B78052B20D02378012B01D1002323701C4B198811
:4004C000142908D160780021012801D1617001E00120607019801988013119800DE0022B08D1124B1B78052B04D021780023012902D100E0012323706370002A09D000201D
:4005000000F04CFD012000F05BFA012000F04CFA02E0012000F042FD607800F051FA10BD5221002046210020AC0B00204521002038210020F7B501F025F8574801F042F83F
:4005400062B60125082600F0B1F9012000F02CFA012000F023FD012000F032FA4F4800F055FA4F4800F050FD4E4801AC00F008FB4D4800F069FBFFF755FF00F097F9201C01
:400580006570267004F0B0FA071E10D1207800F0DDF86B46D870201C6770267004F0A4FA002804D16B46291CDA1C00F08BFB02F0DDFA3E4D2B78023B012B25D8032002F0CA
:4005C000C9FA071C00F071FD061C032F13D104F059FA04280AD100F085F9354B1B681B04DB1783420BD100F0EFFD0AE004F04AFA062806D1EFE704F045FA022801D000F017
:40060000D5FD301C00F055FD2B782A4D023B012B06D92B78012B3CD1002000F045FA36E02E78012E35D1201C667004F033FA201C00F098F8201C04F057FA071E27D12078B7
:4006400000F084F86B46D870201C677004F022FA201C00F087F8201C04F046FA6B46311C381CDA1C00F02EFB011E10D1124B1B78012B0CD1114B1A78012A08D110480378B8
:400680004078000218436B46033300F033FB00232B70FFF7E7FE8AE7B5030000C5020000B1020000C50600001907000052210020080224400410002008100020B00B0020B1
:4006C0003A210020BC23FF3310B5984217D10C1C0B4801F0FBFA63689A88012A0FD11B68084A1B7808481370012B06D00748002B03D00748022B00D0064801F0E7FA10BDCB
:40070000F23C010046210020463D01001B3D0100733D0100A03D010008B5E823FF33984207D0013398420AD10022054B05481A7003E00122024B04481A7001F0C7FA08BD1A
:4007400008100020F63D0100DC3D0100431EDBB20320062B01D8024AD05C40B27047C046D53D010001220F4900B50A70031C00780138072815D801F055F80413080A0C0E87
:4007800010121A7000230B700BE0022208E0032206E0042204E0052202E0062200E007221A7000BDB00B002070B50E1C151C0C1CA31BAB4204DA207800F086F80134F7E73D
:4007C000281C70BDFEE70000031C10B580240849084A0868E400C3189A1AA24201DC0B6005E001F0ABF90C2303600120404210BDB40B00206021002070B51049104B01395A
:400800004A1C15D000221E685C689D68A018AA4203D0B058A0500432F8E7021CDC68151AA54202D0002520C2F9E710330139E7E701F08AF9FFF77EFEFEE7C046010000002A
:400840008041010001210E4A10B51368141C8B43136000239A000B49032B01D80A4989580A4801338150302BF4D1FFF7D5FB0022074B1A60236801321343236010BDC046AA
:4008800000001040C50700000000000000000020C00000208021044A08B5136809060B43136000F073F808BD0000244010B5054C2378002B03D100F01DF801232370FFF73F
:4008C000E9FF10BD09100020044B1A681F231340082BF9D0024B18607047C0460802244040022440024B18681F2318407047C04608022440134A144B10B51A600023012140
:400900000724124A12481360124A1160124A026012480460124803601248016012490A600421124A1360124A1160124A1360124A1360124A1360124A1360124A1360124AB5
:40094000136010BD0F0000020000244040002440000324404800244007000080040324401003244044002440000224400402244050002440880E2440C80E2440480F244087
:40098000080F2440C80F2440880F2440044A054B11680B40902109040B4313607047C04600010240FFFF0FFF4023044980010A689A43D2B2034013430B6070470002044094
:4009C0007F23044AC00111680B401843C0B210607047C0460003044008B500F0DDFA00F0CDF800F02FF908BD08B50023044A1370044A1370044A1370FFF7EEFF08BDC0462A
:400A000057210020532100205621002030B591B0051C1E490BA8142201F0CBF81C4C0134E37F002B03D1FFF7DFFF0123E3770120002D29D000211B24164B08A805AA1D6074
:400A4000018106AB117016311C805C806944173C426008931C7102F05FF9002814D10523AE220093019002900B490C4812010BAB02F0AEF8002807D10122094B09481A70D9
:400A8000162111320EF06EFA11B030BDC03E01000A10002048210020C8000020890D000052210020D43E0100021C10B50120022A2CD8174B1B78042B26D1164C217819421D
:400AC00022D1154B002A07D1E12189001986596A1F300880103009E0012A08D19621C8201986596AC00008808020C00148800B492033181C0A700CF05FFB002806D104226E
:400B000023781343237001E00420FF3010BDC0465221002057210020B80B0020562100207047437800781B021843704738B5838900250B2B1BD1041C291C0430221C3533ED
:400B40000EF05EFA051E0DD16068FFF7EAFF094B1B68820702D58220400001E00620FF30211C98470121044A13788B431370281C38BDC046482100205721002070470000A9
:400B8000014B18607047C0462C1000201FB56B460E21DA1C002301A801810D391370019281801A1C191C0EF02BFA05B000BD0000F7B5164E3568002D26D0838900250E2BC9
:400BC00022D14368FF351B78022B18D80389F23D012B14D1041C071D381C0021221C3F330EF00EFA051E0AD16A462388019713806B469870BC203368FF30694698470121A5
:400C0000034A13788B431370281CFEBD2C100020572100201FB50123002A10D000280ED199420CD1111C021C0E2401A80191111C838004810EF0AEF9431E984183B2181C22
:400C400004B010BD70470000014B18607047C04630100020F7B5184F3C68002C2AD083890024122B26D1154B0634FC339B6CDB041BD5061C4068FFF754FF01231840454265
:400C800045410021301D321C3F330EF0B9F9E835FF35041E09D16A463388019013806B46694698703B68281C98470121044A13788B431370201CFEBD30100020D43E010010
:400CC000572100201FB5031C0120002B10D114781234E4B2152C0BD8112401A881800192191C1A1C04810EF08BF9431E984180B204B010BDF0B587B001AF38800D1C161C40
:400D00000093002B01D1012027E00029FBD1012AF9D1134BFC339B6E5868FFF702FF304216D0112303AC2381009B201C0393291C2A1C2B1CA6800EF063F90028E3D1094BF6
:400D40001B78022B07D13868211C0DF095FB04E08020400001E00420FF3007B0F0BDC046D43E010052210020002382799A4208D1821D0378002B03D101309042F9D100E0D0
:400D80000123181C70470000F0B50126784B85B01A78041C32430D1C1A701F1C272800D189E00FD8062865D007D8B04223D0052800D0CEE00A786F4B5AE0212869D02628C3
:400DC0007BD0C6E0422850D00ED828284AD0412800D0BEE00222684800F0EBFE0022654B1A70FFF7D3FEB4E0432800D184E04C2800D189E0ADE0082303AE33700023301C24
:400E0000737003F071FE0823301C3370747003F06BFE5A4B1B68181C0093FFF7A5FF019000280AD0009801F0A5FE544B00211868FFF776FE514B186807E0514801F09AFEFC
:400E40004F480199FFF76CFE4D48211CFFF768FE03200CF061F83F2333700023301C73700CF078F80422474B02E00022424B5A701A706EE00B78002B6BD14A78002A05D1E1
:400E8000414BDA809A80414A4B601A603B7801222BE01B789B065CD43D490B78102B01D10B3BCB70344B18780CF046F901223B7813433B704DE00222D5E7324B19781A1C34
:400EC000022946D03878304243D004203E78064204D003221A703B788343EAE73B781B0705D50423137008223B789343E1E703292FD1042313702CE04988162900D91721B6
:400F000028880DF085FA24E0081CFFF70FFE3B78334204D0002802D1281CFFF749FE3B78DB0704D5002802D1281CFFF793FE3B78DB070ED4002809D0122303A98B70AB8926
:400F4000C87028680B800DF059FA02E028680DF0E9FA11233A781A4208D001223B78201C93433B700B4B291C1B68984705B0F0BD572100205321002054210020EC0B002098
:400F8000F00B00205221002034100020A80B00207C0C002048210020704700004023044980010A689A43D2B2034013430B607047000304407047000010B5041C00F075F865
:400FC0000449054A0B68A405134023430B6000F070F810BD00E400E0FFFF3FFF10B50424054B064A1C60064B03209A64FFF7E4FF044B1C6010BDC04680E100E0B50F0000F9
:401000000000002000E100E010B50424044B1C60044B98640320FFF7CFFF034B1C6010BD80E100E00000002000E100E00422014B1A60704780E200E07F22034B1868904305
:40104000C0B21860C00970471002044010B5041C00F02BF8C021044AA40113688B432343136000F026F810BD08E400E010B58024054B64001C60054B18660320FFF7E6FFB6
:40108000034B1C6010BDC04680E100E00000002000E100E0000000000230800803D00138FDD1C046C046C0467047EFF3108072B6704780F31088704738B5051CFFF7F5FF09
:4010C0000721054C054A23682940C90413400B432360FFF7EEFF38BD00010B40FFFFC7FF10B5041C86B0FFF7E0FF0E4B0E491A6802AB02920D4A126803920D4A1419033CCF
:40110000227804920B4A126805920B4A00926A4601930A4B1A600A4A11601B68FFF7C9FF06B010BD08010B401700008000010B409440010030001040B6EA00000800104012
:401140000400104008B5034B1B7A5843FFF7A4FF08BDC046840C002001210F4A10B51368041C0B43802113600C4A0D4B09021A600C4A13680B431360002801D100200AE0C6
:401180000120FFF7DFFF084B1B68DB07F6D4013C002CF5D1102010BD60F02E400220000078002E4010002E400C002E4008B5FFF77CFF0421034A13688B43136030BFFFF78D
:4011C00078FF08BD10ED00E037B5FFF76EFF04210D4A0E4D1368041C5B005B0813600C4B0C4A1B8802209BB213600B4A13680B4313602B680193FFF75FFF30BF019B201CDF
:401200002B60FFF756FF37BD00000B4000010B4052F1FF0F0C000B4010ED00E008B5FFF744FF1F4A8021136809069B009B0813601C4A13689B009B0813601B4A13689B0080
:401240009B081360194A13689B009B081360184A13689B009B081360164A13689B009B081360154A13689B009B081360134A13680B4304211360124B124A1B889BB213604A
:40128000114A13680B431360104AFB3113688B430E390B43136030BFFFF70BFF08BDC0460800044008010440080204400803044008040440080504400806044000000B4092
:4012C00050F1FF0F0C000B4010ED00E02C000B4001200A4A136883431360022311689943116007492E330A689A43203B1A430A6007220B68934303430B60704700F02E4086
:4013000000FF2E4008B5FFF7E3FF8021024A090613680B43136008BD00F02E400122104B70B51C681440002815D0904215D1022507261968A94319600A490A68B2432A43AF
:401340000A600A682E35AA43103D2A430A601A681043186001E0FFF7BBFF201C70BDC04600F02E4000FF2E4008B5FFF79EFEC021034A090213680B431360FFF79AFE08BDEE
:4013800000010B4010B58024FFF78FFE0749084B0A68E4011A4022430A600A6813408022120213430B60FFF784FE10BD00010B40FF3FFFFF044BC0001B680130C340181CCF
:4013C000012318407047C04610020B4038B5041C0D1CFFF7EFFF00280AD10321081CE400A0402940A140034A136883431943116038BDC0460C020B4038B5041C0D1CFFF709
:40140000D9FF00280AD1E40002340121A540A1402C1C034A13688B431C43146038BDC0460C020B40094B1A6802431A60C20702D51A689207FCD5C20502D51A689205FCD521
:40144000C20302D51A689203FCD5704710020B4070B50E4D061C2B680C1C9B0FC920002B00D06C38FFF76EFE0949300181408440084A432013688B43234313602B689B0FC7
:4014800000D02438FFF75EFE70BDC0460C020B40FFFF000008020B40024B1868024B18407047C04610020B400404040070B5051CFFF7FBFD0E4B041C1A68C0231B021340B5
:4014C00011D10C480C490540281C0E680B4A3240104308600A68012B01D1FFF745FF201CFFF7E7FD70BDFFF74DFF0123E9E7C04600010B400404040010020B40FBFBFBFF12
:40150000044B054A196810400843186019681142FCD1704710020B40080808008023024A11780B431370704773000F40034B1B781B0702D5024B1B88F8E7704763000F40D8
:4015400084100F4008B50A4A0A4B13800A4A1380FFF7ABFD1021094A13780B431370FFF7A8FDFFF7E3FF0022054B1A7008BDC04644100F40BF5D000004100F4093000F40EC
:4015800083000F4010B5054C2378002B03D1FFF7D9FF01232370FFF7C1FF10BD3C10002010B5041CFFF781FD0449054A0B68A403134023430B60FFF77CFD10BD00E400E002
:4015C000FF3FFFFF10B50224044B1C60044B58640320FFF7E5FF034B1C6010BD80E100E00000002000E100E008230449C0000A689A43D2B2034013430B607047000004402E
:40160000024B18680007C00F7047C0460400044001607047016070472B4B2C4A19782C4B09021B7819432B4B1B7812781B021343294A934204D1072909D1284B033906E022
:40164000D4221201934202D1042900D1234B244A1360244B244A1960244B1B7812781B021343234A134200D1224B234A23491360234A0B7812781B021343224A934204D0C9
:40168000214A934201D0052B00D1204B204A1360204B214A1B681268AA2A14D11F2B12D90B780E2B0FD11D4B1D4A1B7812781B0213431C4A13601C4B1C4A1B7812781B0234
:4016C00013431B4A13607047D9F0FF0FDEF0FF0FD8F0FF0FDFF0FF0F580B0000580D00006C002E4074002E40DAF0FF0FDBF0FF0FFFDFFFFF0220000078002E40DDF0FF0FAB
:40170000DCF0FF0F0F0F000005050000050F000080002E40EC0F00F0E00F00F06DF2FF0F6CF2FF0F84002E406FF2FF0F6EF2FF0F94002E4008B5FFF705FD08BD08B500F00A
:401740005DF808BD08B500F061F808BD08B500F05DF8034800F028F8032000F02BF808BD1D18000008B5024800F034F808BDC0461D1800000220FF3070472B2070472B207F
:4017800070472B2070472B2070472B2070472B2070472B2070472B2070472B2070472B2070472B2070477047014B18677047C0460000002010B5041CFFF777FCC021044A84
:4017C000A40113688B4323431360FFF772FC10BD0CE400E010B58024054B64011C60054B18670320FFF7E6FF034B1C6010BDC04680E100E00000002000E100E08022024B0C
:4018000052011A607047C04600E100E08022024B52011A607047C04680E100E008B512F04FFA08BD02B4714649084900095C49008E4402BC7047C046002243088B4274D353
:4018400003098B425FD3030A8B4244D3030B8B4228D3030C8B420DD3FF22090212BA030C8B4202D31212090265D0030B8B4219D300E0090AC30B8B4201D3CB03C01A524169
:40188000830B8B4201D38B03C01A5241430B8B4201D34B03C01A5241030B8B4201D30B03C01A5241C30A8B4201D3CB02C01A5241830A8B4201D38B02C01A5241430A8B4240
:4018C00001D34B02C01A5241030A8B4201D30B02C01A5241CDD2C3098B4201D3CB01C01A524183098B4201D38B01C01A524143098B4201D34B01C01A524103098B4201D374
:401900000B01C01A5241C3088B4201D3CB00C01A524183088B4201D38B00C01A524143088B4201D34B00C01A5241411A00D20146524110467047FFE701B5002000F0FCF80E
:4019400002BDC0460029F7D003B5FFF775FF0EBC4243891A1847C04603460B437FD4002243088B4274D303098B425FD3030A8B4244D3030B8B4228D3030C8B420DD3FF221F
:40198000090212BA030C8B4202D31212090265D0030B8B4219D300E0090AC30B8B4201D3CB03C01A5241830B8B4201D38B03C01A5241430B8B4201D34B03C01A5241030BF5
:4019C0008B4201D30B03C01A5241C30A8B4201D3CB02C01A5241830A8B4201D38B02C01A5241430A8B4201D34B02C01A5241030A8B4201D30B02C01A5241CDD2C3098B42F3
:401A000001D3CB01C01A524183098B4201D38B01C01A524143098B4201D34B01C01A524103098B4201D30B01C01A5241C3088B4201D3CB00C01A524183088B4201D38B004C
:401A4000C01A524143088B4201D34B00C01A5241411A00D201465241104670475DE0CA0F00D04942031000D34042534000229C4603098B422DD3030A8B4212D3FC22890191
:401A800012BA030A8B420CD3890192118B4208D3890192118B4204D389013AD0921100E08909C3098B4201D3CB01C01A524183098B4201D38B01C01A524143098B4201D399
:401AC0004B01C01A524103098B4201D30B01C01A5241C3088B4201D3CB00C01A524183088B4201D38B00C01A5241D9D243088B4201D34B00C01A5241411A00D201466346D3
:401B000052415B10104601D34042002B00D54942704763465B1000D3404201B5002000F00BF802BD0029F8D003B5FFF715FF0EBC4243891A1847C0467047C046014B186835
:401B40007047C046E00F00200E4B70B500251E1C0D4CE41AA410A54204D0AB00F35898470135F8E712F0FAFA084B00251E1C084CE41AA410A54204D0AB00F3589847013598
:401B8000F8E770BD6841010068410100684101007041010030B50024944208D0035D651C0C5DA34201D0181B02E02C1CF4E7002030BD002310B5934203D0CC5CC454013369
:401BC000F9E710BD031C8218934202D019700133FAE770470FB40B4B13B51C68002C05D0A369002B02D1201C00F03EFA05AB201CA168049A019300F0E7FB16BC08BC04B06C
:401C00001847C046E00F002070B5051C0E1C002804D08369002B01D100F026FAAC68A3891B0702D52369002B19D1281C211C00F0AFF8002813D00120404245E03178002B32
:401C40001BDAA269934211DA221C281C00F048F8013042424241D0B20028ECD10136A3683278013BA360002AE8D10CE023681970236819780A2903D1E6E7236819702368B6
:401C800001332360EAE7002B17DAA269934208DB0A2322681370236819780A2911D1281C01E0281C0A21221C00F01AF8013042424241D0B2002806D0BDE70A2322681370E8
:401CC0002368013323600A2070BD000008B5034B011C1868FFF798FF08BDC046E00F002070B5051C0E1C141C002804D08369002B01D100F0B9F9234B9C4201D16C6808E03B
:401D0000214B9C4201D1AC6803E0204B9C4200D1EC68A369A360A3891B070AD52369002B07D023682269F6B2981A636998420FDB08E0281C211C00F02BF80028F1D00120D2
:401D400040421DE0281C211C00F020F90028F6D1A3680130013BA36023685A1C22601E706369984205D0A389301CDB0708D50A2E06D1281C211C00F009F90028DFD1301C87
:401D800070BDC046C8400100E840010008410100354B70B51D68061C0C1C002D05D0AB69002B02D1281C00F05FF9304B9C4201D16C6808E02E4B9C4201D1AC6803E02D4BE1
:401DC0009C4200D1EC68A3899AB2110723D4D10607D409220120326037321343A381404240E0530713D5616B002908D0231C4433994202D0301C00F021FA0023636324224C
:401E0000A3899343A38100236360236923600822A3891343A3812369002B0BD1A023A2899B00134080229200934203D0301C211C00F0ACF90123A289134005D00023A360B1
:401E400063695B42A36103E0910700D46369A36000202369834205D1130603D540231A43A281013870BDC046E00F0020C8400100E840010008410100F7B58A89051C0C1CBD
:401E800013075ED44B68002B02DC0B6C002B1ADDE76A002F17D000232E682B6080235B011A4001D0626D15E0281C216A0123B847021C431C0ED12B68002B0BD01D2B01D0E8
:401EC000162B02D12E6000205EE04021A3890B43A38159E0A3895B0706D56368D21A636B002B01D0236CD21A0023281C216AE76AB847A389421C06D12A68002A03D01D2ACC
:401F000001D0162A19D10022626022692260DB0405D5431C02D12B68002B00D16065616B2E600029CFD0231C4433994202D0281C00F084F90020606326E040221343A3817B
:401F400022E00F69002FBED00B680F60DB1B01930023920700D14B69A360019B002BB2DD281C216A3A1C019BA66AB047002806DC40220120A38940421343A38104E0019B27
:401F80003F181B1A0193E8E7FEBD000038B50B69051C0C1C002B01D100201CE0002804D08369002B01D100F05FF80B4B9C4201D16C6808E0094B9C4201D1AC6803E0084B78
:401FC0009C4200D1EC680C22A35E002BE4D0281C211CFFF751FF38BDC8400100E84001000841010008B5024900F0AEF808BDC0468D1F0000002310B5041C03604360836092
:4020000081814366C281036143618361191C08225C30FFF7D7FD054B24626362044BA362044BE362044B236310BDC046192900004129000079290000A529000070B5682518
:402040004B1E5D430E1C291C743100F03DF9041E08D000212A1C016046600C30A0606832FFF7B0FD201C70BD836913B5002B28D18364C3640365134B134A1B6882620193CF
:40208000984201D101238361041C00F01FF86060201C00F01BF8A060201C00F017F80421E06000226068FFF7A5FFA06809210122FFF7A0FFE06812210222FFF79BFF0123E5
:4020C000A36113BDC4400100E51F0000F8B51D4B061C1D68AB69002B02D1281CFFF7C4FF4835AC686B68013B05D40C22A75E002F10D06834F7E72B68002B06D1301C0421FD
:40210000FFF79CFF2860002801D02D68E9E70C23336016E00123201C5B42E3810233A38167662760A760676027616761A7615C30391C0822FFF746FD201C6763A763A764DD
:40214000E764F8BDC4400100F7B5041C071C002601914834002C16D06368A5680093009B013B00930DD4AB89012B08D90E22AB5E013304D0381C291C019B984706436835F3
:40218000EDE72468E6E7301CFEBD0000F0B58B8991B09B0706D50B1C47330B600B6101234B6145E00C1C0E23C95E061C002904DA8023A5891D4010D10CE001AA00F01EFCAE
:4021C0000028F5DBF023029D1B021D40194BED186B425D418027FF0001E000254027301C391C00F071F800280CD1A3899A051FD402221343A381231C4733236023610123B5
:40220000636115E080220C4BB362A38920601343A38120616761002D0AD00E23E15E301C00F0FEFB002803D00122A3891343A38111B0F0BD00E0FFFFE51F000030B500299A
:402240003ED004390B68002B00DAC9181D4A1368141C002B02D14B60116031E099420DD208680A189A4203D11368C3180B6053684B60216024E08A4203D8131C5A68002A13
:40228000F9D11D685C198C420BD10968691858181960904214D110685268091819605A600EE08C4202D90C23036009E008680C18944203D114685268001908604A6059602E
:4022C00030BDC04634210020032370B5CC1C9C430834051C0C2C01D20C2405E0002C03DA0C2300202B6042E08C42F9D3204A1368101C191C002913D00A68121B0DD40B2A41
:4023000002D90A608B181FE08B4202D15A6802601BE04A685A600B1C17E00B1C4968E9E7144E3368002B03D1281C00F0E3FA3060281C211C00F0DEFA031C421CD0D003229D
:40234000C61C964386420AD11C60181C07210B301A1D8843821A0AD05142995007E0311A281C00F0C7FA431CBAD0331CECE770BD3421002030210020936810B5013B9360C4
:40238000002B05DA9469A34208DBCBB20A2B05D01368581C10601970C8B201E0FFF7A0FC10BDF8B5061C0F1C141CD518AC4208D02178301C3A1CFFF7DFFF0134431CF5D1DF
:4023C00000E00020F8BD0000F0B59FB0061C0F1C02920593002804D08369002B01D1FFF743FE794B9F4201D1776808E0774B9F4201D1B76803E0764B9F4200D1F768BB89D4
:402400001B070AD53B69002B07D0002306AD6B6120336B761033AB763DE0301C391CFFF7B7FC0028F1D001204042CAE0059A111D12680591002A7EDB0992013423782E2BFA
:4024400000D189E021786348032200F00FFB002808D0604B0134C01A40238340181C2B68184328602178631C5B4806220293297600F0FCFA002800D191E0584B002B00D030
:4024800084E00722059B07339343083305936B69039A9B186B61029C2378002B04D1029BE31A049311D003E0252BF8D00134F3E7049B301C391C029AFFF773FF431C7BD0D9
:4024C0006A69049B944663446B612378002B73D00122002352426A6002A95432521801342B60EB60AB601370AB6521783C48052200F0BCFA002809D0394B0134C01A01238A
:402500008340181C2B6818432860EEE72B68DA0604D55322202102A8121811701A0704D553222B2102A81218117022782A2A00D17CE7099B05E05242EA60022213432B6064
:402540007BE72278303A092A04D80A214B4301349B18F6E7099371E763782A2B09D1059B02341A1D1B680592002B0DDA01235B420AE0002301342278303A092A04D80A21F0
:402580004B4301349B18F6E707935BE705AB0093301C291C3A1C134B00E000BF07E005AB0093301C291C3A1C0E4B00F08BF80390039B013300D06AE7BB895B0600D532E7CF
:4025C0000B981FB0F0BDC046C8400100E8400100084101002E410100324101000000000028410100A3230000F7B5171C01930A698B6800900C1C934200DA131C221C3B60DE
:4026000043321278002A01D001333B6023689B0602D53B6802333B60062523681D401ED0231C43331B785A1E9341226892061CD53020E1184031C870211C5A1C4531097817
:40264000A21840320233D1700FE0221C0123009801991932089EB047431C0ED00135E3683A689B1A9D42F0DBDAE7221C009801994332089DA847431C02D10120404220E07F
:4026800006232068E1683A6803400025042B03D18D1AEB43DB171D40A3682269934201DD9B1AED180027AF420ADA221C0123009801991A32089EB047431CDED00137F2E755
:4026C0000020FEBDF0B58BB006920A1C43320793059004920A7E0C1C109B6E2A00D1A8E011D8632A22D009D8002A00D1B2E0582A00D0C2E045310A707C4A4FE0642A1DD0B1
:40270000692A1BD0B9E0732A00D1A7E009D86F2A29D0702A00D0B0E0202209680A43226037E0752A1FD0782A33D0A6E00E1C1A684236111D196013683370A1E021681A6859
:40274000080606D4490604D5111D19600023D55E02E0111D19601568002D3BDA2D23049A6D42137036E021681A68080606D4490604D51568111D1960ADB202E0111D1960A7
:4027800015685A4B227E03930A276F2A1DD108271BE0221C782145321170554A19680392081D226818600D68100602D4500600D5ADB2D30702D520231A4322601027002D12
:4027C00003D1202322689A432260231C002243331A7002E00A27454B03936368A360002B03DB0422216891432160002D02D1049E002B0ED0049E281C391CFFF7A3F8039B4F
:40280000013E5B5C281C3370391CFFF715F8051EF1D1082F09D12368DB0706D563682269934202DC3023013E3370049B9B1B23612BE009681A68080607D4490605D5111DD0
:4028400019601368A28A1A8004E0111D1960136862691A600023049E236116E01A68111D196016680021301C626800F0FFF8002801D0801B6060636803E0261C42363270F1
:40288000012323610023049A1370079B05980093211C069B09AAFFF7A7FE431C02D10120404221E0236905980699321C079DA847431CF4D023689B0705D4099BE0689842C0
:4028C00012DA181C10E00025E368099A9B1A9D42F3DA221C0123059806991932079EB047431CDCD00135EFE70BB0F0BD394101004A41010038B50023064C051C081C23601F
:40290000FDF762FF431C03D12368002B00D02B6038BDC0465821002038B50C1C0E25495F00F0B0F8002803DB636D1B18636503E0A289024B1340A38138BDC046FFEFFFFF58
:40294000F8B51E1C8B89051C0C1C171CDB0505D50E23C95E0022022300F074F8A289054B281C1340A3813A1C0E23E15E331C00F01FF8F8BDFFEFFFFF38B50C1C0E25495F48
:4029800000F060F8A389421C03D1054A1340A38104E0802252011343A381606538BDC046FFEFFFFF08B50E23C95E00F015F808BD38B5051C0020074C2060081C111C1A1C4D
:4029C000FDF7F2FE431C03D12368002B00D02B6038BDC0465821002038B50023064C051C081C236000F062F8431C03D12368002B00D02B6038BDC0465821002038B50023BF
:402A0000064C051C081C111C236000F057F8431C03D12368002B00D02B6038BD5821002038B50023064C051C081C236000F04EF8431C03D12368002B00D02B6038BDC0469F
:402A40005821002038B5051C0020074C2060081C111C1A1C00F042F8431C03D12368002B00D02B6038BDC04658210020C9B28218904204D003788B4202D00130F8E700202E
:402A80007047000038B5051C0020074C2060081C111C1A1C00F02AF8431C03D12368002B00D02B6038BDC0465821002058220120014B40421A60704758210020582201201F
:402AC000014B40421A607047582100205822024B00201A607047C0465821002058220120014B40421A6070475821002058220120014B40421A60704758210020134A10882C
:402B0000810703D08107890F401A001D11791030484381B25088820703D08207920F801A001D800040180A494030098980B2CA0701D0503080B2890706D504495422091FFD
:402B400009785143081880B2704700009A0C00204010002010B501F0FDFE10BD10B501F00FFF10BD10B501F013FF10BD10B500F04FFA10BD10B50749044609780220002967
:402B800007D1204601F04CFF002802D120460AF0B9FA10BD040E002070B504460120002C12D02368002B0FD0616800290CD0074D06222889208118462968FEF7FAFF696811
:402BC000606809780170002070BD000040100020FFB585B0002768460E9D07734C481C460078002802D0082009B0F0BD10990F9801900095029105A807C800F0FBF80028F5
:402C0000F2D16946264603AB84460873002C19D0002115E08A00B75A082F09D990198078002805D0083FB7521878401C187005E0002915D00027B75290198770491CC9B2DF
:402C4000A942E7D360460028CED10F9800280AD0109901F033FA0006000E04D00120C3E701208446EEE701F08BFE2948002101610C300599016021888180022D03D3A179ED
:402C80008171A17AC17100211EE0481C19E082008B00A75AE65ABE46BE4211D26F463E80B4461E190296B678BE7001967646E6521719029EBB78B3706646A652019EBE706A
:402CC000401CA842E3D3491CA942DED3114800906846037B22460799069800F013F9002882D168460A4C007B60700A4801F078FE0028B4D1204607490C3007F02DFA0028B8
:402D0000ADD107F047FA0028A9D1012121706BE7940C002040100020F8B5054633480E460078002802D002242046F8BD002E5BD000242F49002D16D02A89D0070DD028688D
:402D4000002808D003881B3BE12B04D24088FB2801D81B2801D2012409E0900707D56868002804D1F7E70020088108604860002CDAD11F482F8907811C481B21801D018095
:402D800041800421017119490020891C0870F80705D016480622801D2968FEF70AFF1449B80703D56A681148127882700F480D46801D0860001F486001F058FE0B48801D4E
:402DC00001F046FE28890DF0C9F928890DF030FB03461033FFF792FE1F21C018890140180249308088809FE701249DE7940C002040100020FFB58446384F1C460020BB881D
:402E00003F78054602460646002F11D100290ED0029999420BD36146002908D0002C06D00A99002906D02E4B0B99994202D2012004B0F0BD002144E0AB001F19BF78002F68
:402E40003BD0E35A002B38D07B43591889B22B0000F04AF8050410161C253100A7782388BC46FF27233BEB37BB4222D26346032B1FD322E0A388002B1FD0302B19D31CE0B9
:402E80002389002B19D0282B13D316E0A289002A13D01346134F233BBB420AD20DE0268A002A0AD033460F4F233BBB4201D2964203D901200EE0002001E000280AD16D1C03
:402EC000EDB2099B9D42B7D31C2463435B1802998B42ACD89642AAD8AAE70000940C002079020000BAFF000030B47446641E2578641CAB4200D21D46635D5B00E31830BCA1
:402F000018470000FFB583B0002469460C801F4606468C80002806D00598002803D004983043800701D0012467E0002FFBD03449049809888842F6D3FEF714FCFEF702FC97
:402F400000F010FC002856D100F06CFD002852D12C49084601F0E6F805042D0C4BD12A480499066081800021C18007810C98007AC00704D0684601F01CFD040007D10C9821
:402F8000007A800703D501A801F01CFD0446BF1DFEB2002C21D13146059800F05DF804001BD10DF053FA0406240E16D16A461088928808368518144AF1B29088D288AEB2CB
:402FC0009319984207D3401B801A80B201F09AFB050007D000E0FF25012400F05BFA002D04D008E0F8B200F01BF9F6E700F07EFA06490120087000F0C7FB204607B0F0BD3A
:40300000980C0020453100004C100020A80C002010B503480078012801D101F015FA10BDA80C002070B5084B0446DA889E8800205518B54206D81D68AA182260DA885118A2
:40304000D98070BD032070BD4C10002001480089704700004C100020F0B587B007460D4600208900009006916846FFF7DBFF844600285DD1304800990160002117E02E4B0C
:4030800088001A680629115406D22C4C0419667882185670628805E0C419203CA67A8218567022891B68C018491C4280C9B2A942E5D300242DE0601CC2B2059025E01E4FCC
:4030C000A30039689600581840887118039604904E88B04217D938466F46FE80B6464F786E4677710297049F4F800168039F5E18767879184E700168764659184E800068AB
:40310000029F18184770521CD2B2AA42D7D30598C4B2AC42CFD36046002809D168460699FFF780FF8446002802D1054900980860604607B0F0BD0000AC0C002090410100AB
:40314000B00C00207047000010B5002809D005494A68002A05D0011F08788000105801F07FFA10BDAC0C002010B50446FFF76EFFC0B2801DA0420CD307484068002808D027
:40318000A100405801F0DEF9002801D00470001D10BD002010BD0000AC0C0020F8B516460D460446FFF752FFC0B2801DA04203D20020C0430090F8BDB2B2E9B2684601F039
:4031C000E7F90099481C03D0024AA000526811500098F8BDAC0C0020F8B50746FFF736FF801DC6B20A49002005460C680DE06178002907D06188B94202D32078FFF7B4FFC7
:40320000002804D1241D6D1CEDB2B542EFD3F8BDAC0C002010B5002801D0FFF795FF10BD70B506460948002504680BE06178002905D062882078121D0023FFF7AFFF241DFF
:403240006D1CEDB2B542F1D370BD0000AC0C0020FFB581B00A9C16002BD000F0F1F80546042826D0214F002C0BD02046FFF7B4FF2901C919486000281BD022460499FEF73D
:4032800098FC1A4928010E5046187481019805707D20029CC000444300F0C0F8009004280AD000F055FAA0420ED800F051FA201A06E0FF2005B0F0BD204600F0ADFA00206F
:4032C000B08135720020F5E700F042FA074600F0B9FA381B87B23846012100F0EFF800980101024808188781E6E7000058100020F8B5060117483418217A042903D0A08957
:40330000002802D018E00020F8BD00F021FA054600F098FA00F0A2F804280DD001010D480F18B88941198DB2002100F0C7F80020B881284600F070FA6068064D002801D0FE
:40334000FFF768FF042020720020A8516081A081D9E7000058100020FEB500266A46304601232549050169180D7A042D02D0898900291BD000211154401CC0B20428F0D3CC
:4033800000246846005D002830D01B482101081841894768056802910021016041600422418102728181002E02D015E01354E3E700F054F804280ED001010F4808180190A1
:4033C00086890021304600F079F8019800218181304600F021FA0126002D07D038460299A847002F02D03846FFF714FF641CE4B2042CC6D3FEBD0000581000200EB50020C9
:4034000005216A460090118150810348694600680DF091FE0EBD0000B40C0020074A0020010189180B7A042B02D08989002903D0401CC0B20428F3D3704700005810002083
:403440000549002002015218127A042A03D0401CC0B20428F6D370475810002030B50A4B04200A4C00210A011219157A042D06D09289002A03D09A4201D808461346491C68
:40348000C9B20429EFD330BDFFFF0000581000207047000030B50020074C05460423020111190B72A5504D60401C4D81C0B28D810428F4D330BD00005810002030B5094C16
:4034C00000231A011219157A042D04D09589002906D02D1895815B1CDBB2042BF1D330BD2D1AF7E758100020002070471CB5002469460C70142001902346054A05480DF008
:403500001FFE04480068401C00D1FF2420461CBD69350000B40C00203EB5124A0146FF2000230124126800290DD0012914D0042908D104206946009308814B8110460DF00E
:40354000FAFD80B23EBD6846009304814381694610460DF0EBFDF4E768460093048143816946EBE7B40C002070B545890468416800890300FFF7B8FC08280509091E222800
:403580002628002005F0FAFC1EE0022908D0C8B22A4621460BF092FF2046FFF73BFE13E002202A4621460BF089FF2946204600F00DF809E000200DF0ADFA05E02046FFF718
:4035C000CBFE01E0FEF7EFF8002070BD014B0022DB681847B80C002070B5448905680089022803D0032809D0FF2070BD2246094C0023A46829460120A04708E0FFF7AEFAE6
:40360000241DA2B200232946022006F056FC002070BD0000B80C002070470000024800214160018041807047B80C002070B50C46002186B016460391012802D0022859D11B
:4036400016E003A9012006F098FC01281BD1039D324621462846FEF7ACFA0095287801900220694608814E816846FFF7B5FF41E0214D002B686809D0049004A9022006F05D
:403680007CFC01281DD0022006B070BD002812D0298840182146FEF78CFA28880024801980B228806988091D884206D12C801348FFF792FF03E00320E6E788421AD96C6099
:4036C00018E004986860E278A378110219430B4A698000231060E3565360032313815181A1788170E178C1706178417021780170042028800020C7E7B80C002098100020D3
:403700003EB515460C46022803D004280CD000203EBD0091019002206946088107484A8100680DF008FD07E00BF0C8FE044B0022DB6829462046984701203EBDB40C0020BD
:40374000B80C0020014AD16090607047B80C0020034801688068081A0A21484300097047A410002010B5FDF7F1FF482204490548FEF71FFA03490120C870002010BD000009
:40378000AC410100A814002010B5FDF7D7FF10BD70B5134C2368002B08D0207B1149C20705D04008400020738868A08070BD88680B4AA18880B29268814203D90A4D691AD3
:4037C000091802E0814202D2411A5118A160A080A0689842EAD30DF0CBFC00F013F870BDA4100020C0102E40FFFF000010B508461946FFF7A7FF10BD704710B5FFF780FFE3
:4038000010BD000003480021016041608160C16070470000A4100020024610B5FF20002A0CD0FFF7EFFF064C0321207B0843207310010A21FEF786F82060002010BD00009F
:40384000A410002000B504480A21806848430209FFF7D8FF104600BDA41000200248007B8007C00F70470000A410002010B544490868002802DA434B01221A700222904378
:403880000860414800693E49C00B4031096A08425ED0012000F0D0FA3B483C497C30FDF7B9FE37480E216C30FDF7B4FE364820218430FDF7AFFE344814219C30FDF7AAFEA9
:4038C0003148FF21C131A430FDF7A4FE2E48FF212F31B030FDF79EFE2B482D49BC30FDF799FE29482B49AC30FDF794FE29492648491CB430FDF78EFE23482749B830FDF766
:4039000089FE21482549CC30FDF784FE1E4824490830FDF77FFE1C482249A830FDF77AFE194821498830FDF775FE17481F498C30FDF770FE14481921C9029030FDF76AFEDC
:40394000FDF76AFEFDF716FFC0B2022802D00FE0FF2010BD16491748FDF75CFE15481649001DFDF757FE134800210830FDF752FE54200449C043891C0870002010BD0000A5
:4039800000F02E40C80C002000002E4055650000320300002F3F00003102000010520000EC160000FA12000031D000003AE300009956000080012E40F80F000070B50646D3
:4039C000581C80B245086D00002408E0304600F0C1F81055000A1119A41C4870A4B2AC42F4D3D80705D0D0182038D15CC47FD454C17770BD30B50A4C002100195B1E07E05A
:403A0000541864782502545C2C430480891C89B29942F5DB994201D1515C018030BD000000102E4010B5FF2000F006FA0F49FF2048700E481021801D418001214170017077
:403A40000A490020C91C4870FFF710FF04000AD100F01AF907210648FDF7DAFD044807211830FDF7D5FD204610BD0000C80C0020CC112E4070B5002405465B1E0AE02846B5
:403A800000F068F8010A161971702D1D1055A41CADB2A4B29C42F2DB9C4203D1284600F059F8105570BD000070B500210A4D5B1E0AE0541864782602545C3443461934802F
:403AC000001D891C80B289B29942F2DB994202D1515C4019018070BD00102E40F0B50599091FCFB200217E1E0BE0541864782502545C2C43164D45192C80001D891C80B28C
:403B000089B2B142F1DBFC0712D01C78515C24020F4A0C4381180C809C785D78001D210280B2294384182180001D80B2D9780CE059781A7809021143054A84182180001D77
:403B4000D9789B78090280B2194380180180F0BD00102E40014940180088704700102E4010B50B490020487000F08EF8002000F089F9002000F076F907210648FDF748FD7E
:403B8000044807211830FDF743FD002010BD0000CB0C0020CC112E4010B506480078012803D102210448FDF735FD02490020C91E087010BDCB0C002070F02E4010B50B4657
:403BC000062812D006DC01280CD0032801D1FFF7C7FF10BD0A28FCD00B28FAD105480078107010BDFFF71EFF10BD1146184600F065F910BDCE0C0020F8B5204DAC6A012738
:403C0000A0071F4E002816DA307806280ED1286A384328621B480069F903084381B219481030FDF7F7FC042000F006F9134802212830FDF7EDFCE00711D0062000F0FCF8A6
:403C40000F49FF20C91E48707078002802D1686B38436863094801212830FDF7D9FCE0050BD53078042802D1052000F0E5F80348FF2101312830FDF7CBFCF8BD40F02E403D
:403C8000CB0C002000002E4010B503212348FDF7C1FC0120FDF74EFD20483038406A204C80076178800F890001431C480C38FDF7B1FC6078002808D0401E022181401820FD
:403CC000FDF730FFC000083800E0B82081B21548FDF7A0FC1348032109021438FDF79AFC10481149B830FDF795FC612189010F48FDF790FC0D480321001FFDF78BFC0C49FF
:403D00000C48FDF787FC0B480B496038FDF782FC084801218838FDF77DFC10BD70F02E40CE0C0020D8102E4090890000041E2E40FF0F000058122E4020900000044800688A
:403D40004007400F022801D0002070470120704700010B4000B5FFF7F1FF002805D009480168C908C900016000BD0748016A490849000162054801690122D2039143016111
:403D800000BD000000010B4040F02E4000002E400849087806280BD148780749002803D1486B400840004863C86A01221043C86270470000CB0C002040F02E400148007842
:403DC00070470000CB0C002002484078022800D001207047C80C002000B50300FFF784F8080D050D0B070507090D012000BD032000BD042000BD022000BDFF2000BD00006E
:403E0000074A9168D26889B2064B92B2994204D105498A4201D1012100E000210170704780002E4033D000003FE300000149487070470000CB0C002010B50446FDF782FC03
:403E4000072C01D9FF2C01D102480470FDF776FC10BD0000CB0C00200149487070470000C80C002010B5064A012805D01921C9021046FDF7CFFB10BD1D21C902F8E70000C2
:403E800090002E4010B50A4A141D012808D009491046FDF7BFFB08492046FDF7BBFB10BD04491046891CFDF7B5FB0349491DF3E788002E4031D000003AE3000070B50C4632
:403EC0000546FDF757FCC0B202280E49287804D0FF2810D04C280CD810E0FF2809D10A4AD0680004800F032801D0087807E09069000A553803E00878207070BD4F38207030
:403F0000087070BDCA0C002000002E40F0B50122002830D000292ED00424420600D00524792342065B06D21800D0641C034600221EE00C2516466E43104D00277519AF729F
:403F40000E4F002ABB51696007D0661EB24209D10B4E86197606760E05E05E06760E8027BE1B00E080269B198919521C2E81D2B2A242DED300221046F0BD000030130020DD
:403F800079020000074900200C2242435218927A012A05D0401CC0B20628F5D3002070470120704730130020F8B50F000446164609D0184D18496868A04202D94018A0424F
:403FC00001D38E4201D90120F8BD39462046FDF7E1FD00281BD0324639462046FDF7E9FDF0B200210C224A43521913895668F718A74208D90127A41B1B1B9772834206DA85
:40400000C01A1469C0B2491CC9B20629EAD30020F8BD0000301300207902000010B500F05DF80748054AC16806480C46FDF7C1FD04492046FFF76AFF10BD000079020000BB
:40404000D40C0020B4100020002070470020054A002902D0012902D002E0506000E0906000207047D40C002070B5084C154608460549A26889182A46FDF79BFDA06840196E
:40408000A06028B270BD0000B4100020D40C00203EB50A226946FFF7E7FF044606480A2200686946FDF776FD002802D00020C0433EBD20463EBD0000D40C0020002802D0B6
:4040C000044A914201D2FF20704703490A61C8600020704779020000D40C0020024800214160816070470000D40C002070B5074C15460548626880182A46FFF755FF60681D
:404100004019606028B270BDB4100020D40C002010B503490A220968FFF7E8FF10BD0000D40C002010B50F4A002313600E4A13600E4B18600E4801600E49012008600E49E5
:404140000860000290600E490C4808600D4914300860FF381538506000F0BCF800F0CAF9002010BD000D0020E80C0020140D0020180D0020040D0020F40C00207814002094
:40418000F80C00200C0D0020014610B50020002910D0094B1A689C685118A14209D25868196080188A0704D08A07920F891A091D196010BD002010BDE80C0020F8B5002423
:4041C000164E671E321F3D463168136806E01422624310328A58521C1BD0641C9C42F6D36A1C14D02C461422544322460C3288500C214843FFF7C8FF3168002808510AD0F9
:4042000031680020103408517068401C70602846F8BD2546E4E73846F8BD0000F80C0020F3B50026F64381B000281BDB1E490968884217D80299002914D01B4F14220446FB
:404240003F1D54432546396810354859401C09D0FDF778FA38682F1F4159C359994203DBFDF76CFA3046FEBD214608310091465801590C20704308180C220299FDF799FC5C
:404280000948761C001D0068C159B14200D100260549009A091D865008684159491C4151FDF74CFA0020FEBDF40C0020002803DB07490968884202D90020C04370470449E5
:4042C0001422091D096850431030085870470000F40C0020F0B500200D4A451E0346171F50600FE014260146714314680E1DA3510C4616680834335116680834355114682E
:40430000401C635039688842ECD30020F0BD0000F80C0020F3B50026F64381B0002841DB2349096888423DD8029900293AD0204F142204463F1D5443254639681035485979
:40434000401C2FD0FDF7FEF93868415900292BD0211D009146580C21005971430F46C1190C220298FDF725FC11480021001D0068761C00590C34C0190160416081600C48AC
:40438000001D00680159B14200D100260849009A091D865008684159491E4151FDF7CEF90020FEBD3046FEBDFDF7C8F9FAE70000F40C0020FEB504460D4600201E49089E50
:4043C0000860471E009001900290002C11D0486885420ED2002A0CD0002E0AD0642E08D808460C3001681C2068430C18207A002801D03846FEBD0120226020721846FFF706
:40440000DDFE6060401C13D06681A6810A4827610C3067610179A94200D205710021684601810A462846029B00F040F82846FEBD00202072DDE70000000D002038B5012457
:40444000009400F039F838BDFEB50027164EFF433D4600240EE01C20316860430818017A002906D04068FFF721FF002801D0254603E0641C3079A042EDDA681C12D01C21F1
:4044800030684D434419FDF75DF969466068FFF741FF0546FDF752F9002DD9D1216868468847D5E7FEBD00000C0D002038B50024009400F001F838BD1FB500220C49541E29
:4044C0000A60002811DB496888420ED808491C220C31096850430818406801A9FFF7A0FE401C02D0002004B010BD2046FBE70000000D0020F0B50021114A4D1E1746117158
:404500000C3F0B46BD6016E008461C2460431668041D355114680646235014680836A3551468361DA353044616680A34335318301468491C255078688142E5D30020F0BD72
:404540000C0D002038B500210091002811DB0F49097888420DDA0D4D04010C3529680859002807D0201D0818694600F06FF9002801D0002038BDFDF7E5F828680F34015DC0
:40458000491E0155FDF7DAF8009838BD1C0D0020F7B582B0002502986E1E06602E48D21C024017462D4A2C4610460C380178106805E02301C358002B0FD0641CE4B28C428A
:4045C000F7D3711C28D03401211D40180191039900F02AF900281FD101E02646F1E71F48016820460C300F521C480399026820460E30115419480399026820460F3011546C
:404600000398784300F0A0F8144900280968085102D00024009011E001251AE00F48016801980818009900F02CF9002801D0012502E00098C0190090641CE4B20398844216
:40464000ECD3002D05D10298066004480179491C0171284605B0F0BDFCFF0000280D0020F8B50D4600216A468C461180002839DB23490978884235DA214B04010C33196854
:404680000A59002A2ED020460C300B5A801C0E5C184670438018954224D3854222D2002006E007465F43BF18AF4206D0401CC0B2B042F6D36046002814D0114E271DC819DE
:4046C0000C366A46294600F006F900280AD168460088012808D030682946C01900F0D1F8002803D00120F8BD0020F8BDFDF72AF830680F34015D491C0155FDF71FF8F3E702
:404700001C0D0020F8B50F46002400F031F8002817D10C4900220B460C334A600EE021011D680E466A501D680C36AA53B61C1D680F31AA551D68641C6A54E4B2BC42EED31B
:404740001A71F8BD1C0D002000280BD0C01C074A81085068890053884118994203D893685160181870470020704700001C0D0020F8B5064600200F4D009029700C01214607
:404780006846FEF74FFC00280CD129460C3100980860301B001F84B221466846FEF742FC002801D0FF20F8BD6C800098A8600020F8BD00001C0D0020F8B5002827DB1949C2
:4047C0000978884223DA174C05010C342168485900281CD028460C30085A009028460E300E5C401C0E5420682F1DC01900F064F800280CD12068002445590EE00948294624
:404800000C300068C01900F03CF8002801D00120F8BD00982D18641CE4B2B442EED30020F8BD00001C0D002030B50D4604000BD0A800FFF789FF6060002805D00020257091
:40484000C0436080002030BD012030BD70B50D46040005D0002D03D00220205E002801DA012070BDFCF76EFF0221615E60688900405828606088401E6080FCF75FFF0020AE
:4048800070BD70B50D46040007D0002D05D002212078615E401E814201DB012070BDFCF751FF6088401C00B26080616880000D50FCF744FF002070BD10B5040009D0227833
:4048C00000216068FDF77EF90020C0436080002010BD012010BDF0B500231D46002802D00224045F0AE00120F0BD46689F00F6598E4201D1012503E05B1CDBB29C42F4DA29
:4049000015700020F0BD00000148007870470000300D00207CB505460024FEF71FF9A8796946087000A8062229460130FDF741F90021684604F0E8FD0C2804D0072804D00A
:404940001F2804D004E0022402E0042400E0272420467CBD10B502280BD0032802D0042809D102E000F048F905E000F0F3F9FF2801D100F003FAFFF721FAFFF72DFA10BDBC
:4049800010B500F02BFAFFF719FAFFF725FA10BD70B504460025FEF7E1F8002C06D0A079012803D8214602F0CDFC00E00125284670BD01460120002902D050200880002073
:4049C0007047000001460120002905D003485422007850430880002070470000320D002010B502460D49FE204870032410460CF0C5FE002810D10CF069FE00280CD105F035
:404A000019FB002808D100F0F3FB002804D104F0FFFF002800D10024204610BD300D002070B50025044600280ED0A07901280BD8FEF794F8A0790028204602D003F05EF8E5
:404A400003E003F033F800E00125284670BD0000014610B50120002904D006220248FDF7A8F8002010BD0000340D002001460120002903D008780249087000207047000098
:404A8000320D002010B5FFF799F9012801D1FFF79BF910BD38B504460120002C20D0617801291DD800290BD0FF25E535FEF756F80C4828180088C0B22070072803D00EE0F9
:404AC000FF25CD35F2E70020694608706846FFF797F969460878012801D108202070002038BD000000102E40F8B504460120002C26D06178012902D92278092A20D80029C1
:404B000005D0FF25E5352078092803D004E0FF25CD35F8E708202070FEF720F82078114F114E08280DD00020FFF7ACF970780128207810D00D4969180880FE2070700020F3
:404B4000F8BD0120FFF79EF90720B8810549203188800120F2E7B8810248217820308180EBE70000C0112E40300D002000102E4070B50E46050001D0002400E00C4C002CA1
:404B800011D0E28A500609D5D107C90F022003F053F8E08A40218843E08204E0D107C90F012003F049F83146284602F027FD70BD10150020F8B50546002004460D4E0090C9
:404BC00013E022466946284601F04AF80098002801D00CF0B5FDA878214602F0FDFAA878214602F0EBFA641CE4B2308AA042E8D8F8BD0000C8150020FEB54E4DFFF7DEF8BF
:404C0000012849D14C480078002845D002F07EFC002841D004F01AF900283DD0474C6078C00703D000F0E6FC012835D0207E00287DD16078002600285BD0000706D5404833
:404C40008089070B00F02EF9384370D13B484178684603F065FF044628793A4DA9784018C1B2A14261D802F051FC00285FD0344860300089314F0190203702F09DFA6846C1
:404C8000008802F0C7FA02F057FB2F490988884203D10120FFF7D0F849E02C49012008702648807B00281BD00198002818D04037F87E002814D12248603000884000A042F5
:404CC0000AD96878002807D102F0E4FF2049088A03221202104308822878002800D02E7002F0C6FA0120FFF7A1F800F0F5FB174C15E002F00BFC002819D0102402F01CFBF4
:404D0000214602F011FA02F085FA104C0120207002F0AEFA0020FFF789F800F0DDFB20780128B6D1FFF716F826700020FEBDFF20FEBD0000E8140020C80C0020F0140020CD
:404D4000A0102E40400D0020520D00203A0D0020E0112E4010B50848FF244078002809D102F0D4FB012805D1FEF716FF0720FFF763F80024204610BDF014002038B5FFF7D1
:404D80001DF8012801D0002038BD02F0BFFB00280AD0114C6078C00703D000F02BFC012802D0207E002801D0FF2038BD617800290FD0684603F0B4FE022806D96846008822
:404DC00002F028FA012002F059FA0320FFF734F8D9E70020F7E70000F014002038B51E4CFEF7ECFF042813D0052811D0062812D003282AD007280AD10020694608700246F0
:404E00000120FEF7DBFEFEF7D9FF0128FBD138BD00F082FB38BD02F049FA00F07DFB02F0C5FA8007800F0228F4D10C4841880029F0D05B21095D0029ECD101210170A07D99
:404E40000140022002F0F8FE38BD02F033FA0120FEF7F2FF38BD000010150020400D0020F8B50646002402F055FF0546304602F06BFF03460A480021068A0DE001228A407F
:404E80001046174628401F40002803D0002F01D1224394B2491CC9B28E42EFD82046F8BDC815002070B500252C460A4E03E0002C01D0002000E030460079002803D02046FE
:404EC000FFF7CEFF0543641C2406240EEFD0284670BD0000101500201CB50020694648706846FFF7D7FD01AA69460A20FEF766FE6946042008561CBD10B50C4601F082FAF1
:404F0000002809D00179002906D0C1788078224602F0FAFB002010BD022010BD0148007870470000E81400204030C07E002800D00120704700B500F001F800BD8C214843F6
:404F40000749084A40186030417F491CC9B24177D289914201D300214177C8B270470000F0140020C815002013B501F04BFA04000BD001F0E8FD002807D0214601AA0A3123
:404F80000620FEF71BFE00201CBD02201CBD000010B50C4601F036FA00280AD001F0D3FD002806D0224604490A20FEF707FE002010BD022010BD0000D1140020F3B581B03D
:404FC000074601460026029802F09CFE0446002F01D0002500E0154D002D21D0284601F047FA032C04D13946029802F0E7FE06463846029902F0E2F8032C06D0002C10D02C
:405000000121384601F03AFB03E03146384603F0D1F8284601F0C0FF0221284601F0D6FFFEBD3846029902F0C9F8FEBD1015002010B5044603F008FD002801D00C2010BD21
:405040002078611C02F062FCFF2801D01F2010BD02F0A8FCFF280AD02178621C02F036F8044821780068026B601C904710BD072010BD0000580D002010B503F0E5FC0028E5
:4050800001D00C2010BD02F023FC03480068C06A8047002010BD0000580D002070B50D46044610210CF08CFA1021601806460CF087FA334610221946204603F0F3FC102195
:4050C00030460CF07DFA02202870204604F0F8FB70BD0000F8B504464078217802028006870FE0781143A67809050002090D0643084601F087F900210546F2B2002812D019
:40510000002C10D0022F0ED0032F0CD0002A0AD00279092A07D0002A05D0134A5A23527E1B5C9A4207D82889002104F0FEFA20460CF006FBFF21002914D10C48224600686F
:405140002946436930469847C0B2FF280AD128464030817EF2B2491C8176FF232146284600F0DDF8F8BD0000A8140020700D00200020704710B5044603F066FC002801D050
:405180000C2010BD2078611C02F0C0FBFF2808D002F0F8FA044821780068426B601C904710BD1F2010BD0000580D002010B504F02FFC00F057F9002010BD10B5044600780E
:4051C0006178E2780843A17811430843217908436179084305D003F029FC002803D00C2010BD122010BD204602F088FC002010BD10B5FCF7BFFA02F0AFFD044803F07AFD01
:4052000002F0CAFA012000F003F810BDB8140020F1B586B003A8009005A8019025489F22817A114081726846FDF7B6FC00283FD169460989C90705D01F4806990068C26827
:405240006846904769460989890706D500282FD11A480068816A06988847002828D1184E0025757075737571F575357675767575B570F570B5713746F5730120BC37387316
:405280001F20F880FF2130467972A0300175457500F076FA00242046069901F0FFFB002803D1641C2406240EF5D0FD72BD72B57307B0F0BDA8140020700D0020580D00207D
:4052C000F014002070B505460E46084602F022FD0446304602F038FD0121A9400A46224001400A4301D0012070BD002070BD10B50446084602F028FD0121A140014201D03E
:40530000012010BD002010BD10B5FEF757FD032804D101F0CFFF0120FEF78EFD10BDFEB51C4616460F46054601F036FEA878FFF701FE02460190334639460094284600F049
:405340000DF8002808D1A8780199FFF711FCFF2C02D138460CF0F4F9FEBD0000FFB585B005460E980C46FF2810D02B49C00009680A5840180179C0795278814201D9012677
:4053800001E09006860F6846038108E06078A1788006860FE0780002014368460181284601F0DCFB070007D021462846079A00F0EBFB384609B0F0BD304600F099FC04AEFC
:4053C0000346039002AA29460096204600F025FB3C20405D002818D0284601F0BFFB012813D0684600890096C0B20190A878231DFF22079902F0B6F868460089039BC2B2A2
:40540000A878079902F0F6FBD3E7684600890021C0B20091E9E700006C0D0020F8B5104F002500242846FFF71BFD060012D00EE03046E040C007C00F07D02146284601F0DB
:40544000B3FE21462846FFF7B9FD641CE4B2388AA042EDD86D1C2D062D0EE2D0F8BD0000C815002010B502F097F90020FFF7D0FE0CF0FCF9002010BDF8B5002400F0B4F8AA
:405480000123012800D10124104F00203E4620360425082203E0002801D0002100E031460979002907D001290BD002290BD0114681402143CCB2401C0006000EEBD07C700B
:4054C000F8BD1C43F7E72C43F5E70000F014002010B5FFF7D1FF10BD70B50E4CFBF7E5FD0546FEF76BFC062802D02078012803D02846FBF7DEFD70BDFBF758FE2846FBF755
:40550000D8FDFEF75BFC0628F5D020780028E5D170BD00003A0D002010B5FBF7C6FD0446FEF74CFC012809D0FEF748FC022805D0FBF73CFE2046FBF7BCFDEEE72046FBF7A8
:40554000B8FD10BD10B50B4681791943817103D08078114602F01CFB10BD10B582798A43827102D1807802F027FB10BD30B50C4C0220A28A0B4B9978002901D0022906D139
:405580001D785B78EB18282B01D9032002E0032900D101205105490DC0020143A18230BDC0112E403B0D002000B500F023F8002807D0012805D0032801D0042801D00020F1
:4055C00000BD012000BD014600B50020C90701D000F00AF800BD014600B50020C90701D000F002F800BD000001480088000A704720102E400448008B410501D50420704742
:405600004007800F7047000000102E4038B50446000610D5FFF7EEFF01280CD1684601F059FE6846007800F0B3FA012001F01CFD0220FFF74DFF03480068016920468847BA
:4056400038BD0000580D002010B5034A0178117002F0C0F9002010BD3B0D002070B50446FFF7C2FF002801D00C2070BDA27B01211F48002A827801D00A4301E052085200B7
:4056800082706279012A14D0C17849084900C170184D2868016820468847207901280CD06188208803F000F82080207904280FD015E0C2780A43C270EAE72868C168E01DE4
:4056C0008847E01D02F006FA0B48808C208006E02868C168E01D8847E01D02F0FBF9074920798870204602F083F9002070BD0000F0140020580D0020A81400203B0D0020B0
:4057000008B50178FFF770FF814201D10C2008BD002914D0072069460870FFF745FF012807D10121684600F08BF8012801D0092008BDFFF71BFF02F08FF9012011E0FFF7F5
:4057400033FF012806D1684601F0C4FD6846007800F052FA02F076F9FFF746FF0028FBD10220FFF7B5FE002008BD000010B5034A0178517002F0ECF9002010BD3B0D00207D
:4057800038B568460BF072FF002801D01F2038BD01210098C90201804180002505714571857107214173857302F022F9009C202200212046FCF706FA25702A460021601CCC
:4057C000FCF700FA204602F005F9204602F0C0F900980BF0B5FF042200210248FCF7F2F9002038BD3B0D00200346084800B5834209D8184600F006FE002804D0008998427D
:4058000001D1012000BD002000BD0000FF0E0000074A9179491C8906890E917138220A4092014907090E11430843024908407047F0140020FF0E0000C006C00E70470000E3
:40584000F8B507460E4600240D4803E0002C01D0002500E005462979002905D0641C2406240EF3D00020F8BD0021204601F016F92E712046FFF7CCFF28813C700120F8BDA5
:405880001015002010B503F041F90222002100F003F801F02DFF10BD10B5094B40074907000F090F185A595A40185043C0086421FCF748F8002800D1012080B210BD000017
:4058C000F4410100F7B53D20405C88B015460C46002802D02878042802D200200BB0F0BD6946087200262046FFF71EFB012800D00126204603A938300191009023460327B3
:40590000A17E34333246206A03F00EFA02A8089900900B46019120463A4603A9243003F0A1F802466846007A2870204601F0A2F81046D3E7FFB587B00C46054610786946EC
:4059400008723D20005D1746002826D000262046FFF7EAFA012800D00126204603A93830019100902346A17E34333246206A03F0DBF902A80090291D019120462B1D03A932
:4059800024300A9A03F06EF802006846007A388002D1204601F06EF810460BB0F0BDF0B505463C20405C89B016460C4600280CD0307869460873002806D000272046FFF740
:4059C000B3FA012803D003E01F2009B0F0BD012703200890204604A93830019100902346E17E34333A46E06903F09EF96846007B03A928180290009120462B46019504A922
:405A00002430089A03F062F802466846007B3070204601F039F81046D7E7FFB505463C20405C89B016460C46002810D0084601F095F801280BD0308869468883002809D04D
:405A400000272046FFF770FA012805D005E000200DB0F0BD0220FBE70127204603A93830019100902346E17E34333A46E06903F05BF9291D2B1D07A8129A6D4607C52046F7
:405A800003A924300C9A03F021F802466846808B3080204600F0F8FF1046D9E770B50D460446FFF741FA01280AD0E87AA97A00020143A07801F008FD012808D0002070BD03
:405AC00000222421204602F041FD242070BD28214C200155204600F0A3FB282070BD0000002801D0002000E003484030C07F012800D0002070470000101500200146002055
:405B000049070ED50021084B03E0002901D0002200E01A461279022A04D0491C0906090EF3D0704701207047101500200146002049070ED50021084B03E0002901D00022C5
:405B400000E01A461279022A04D0491C0906090EF3D07047012070471015002010B5044680346068002803D00BF0FEFD0020606010BD4030417070474030817070474030AF
:405B8000017070470171704792001018C166704770B53C2501F080F9040004D020460021433001F031FCFF222946204600F0D4FB002C02D0A07801F0F1F870BD10B500285D
:405BC00001D0002000E00348002802D0008903F0F3FD10BD1015002010B5002801D0002000E00448002804D00179072901D100F047F810BD1015002010B501F04DF900282A
:405C000002D0807801F0CAF810BD00207047000070B50546008A00281ED01049F122897A1140C90618D5294640314A8A098A521C4A4392B2D10800D10121540801E0621AAC
:405C400094B2A042FBD9FEF75FFE012804D1298AA878224601F00EFD70BD0000A814002010B50023054C0B60248A944204D992001018C26E0A60C36610BD0000C81500204C
:405C800038B5044600200090A079002814D14020015D052901D00E290ED168460BF0F6FC002809D12046009902F02EFC03481021C28A2046FFF746FC38BD0000A814002015
:405CC00010B50B4604460146184602F0ABF8002802D020460BF03EFD10BD13B5044601AA11460620FDF76AFF6846818861811CBD002800D10220704770470000F8B504461E
:405D00002346401D543300909A1EA078911E01F0FDFA25464035A88A298A8000FBF712FE401E81B2688A884203D96982A07801F0BDFF20460021433001F066FB27480088BC
:405D4000E88102F0E3FEE989891C8AB26179FFF7A3FD01F0CDFC02F0D9FE2A8A6179FFF79BFD074601F0B8FC688A002806D01C49088A032212021043088202E0002001F0A3
:405D800089FF1748803801886E8A002E0CD0304648431449FBF7C6FE0004000C01D0401C80B21149488002E00F4800214180288A704381B2A07801F0D9FEFF222837493286
:405DC000B9B21346204602F073FCE98AA07801F04DFEA07801F012FAF8BD000080102E40E0112E4071020000400D00207FB504468034616805460E46183108226846FBF79D
:405E0000D8FE31462031082202A8FBF7D2FE102168460BF0D5FB6068102108300BF0D0FB60682B46083024331022694602F03AFE7FBD10B504460821FFF78FFB102120462F
:405E4000FFF78BFB207905281FD006281DD008281AD12189002003F027FC072020712046FFF762F8014620464030012913D00E21017000210176204600F0A2FF2046FFF7B8
:405E80006DFE2046FFF7C4FE10BD20890122002103F0EEFBE1E70521EAE70000FFB581B01F4604460821FFF758FB10212046FFF754FB2079082803D0092804D0042203E078
:405EC0000422012501E009220025204600F032FE264600204036307022712046FFF73EFE0398002D02D0012808D00BE001280AD120890022029903F0BBFB04E02189029811
:405F000003F0D2FB012700203076012F04D0204600F056FF05B0F0BD02983073204602F041FB054605480121C28A2046FFF70AFB002DEFD109202071ECE70000A814002014
:405F400070B50C460546FEF7EFFF012809D108212846FFF702FB0023012221462846FFF79DFF70BD10B5044600F0E4FD2046FFF7F5FD00214034217010BD70B505461A2446
:405F8000FEF7D2FF012809D108212846FFF7E5FA0023012221462846FFF780FF70BD0000F8B50446002000900E4668460BF06EFB002801D00D20F8BD842000590821203091
:405FC000009D00F01AFA20460421383000F015FA002E02D1204600F0E9FD2946204602F022FA0E480821C28A2046FFF7ABFA204600F057FF25464035002808D0204600F040
:4060000023F8002801D0092028700020F8BD08202870204600F0C0FFF7E70000A8140020014610B540310A460978082906D0092907D00A2901D100F091F810BD0B201070D3
:4060400010BD00F001F810BD70B50446007925464035052805D0062803D008280FD00C2070BD03220621204602F070FA0D480821C28A2046FFF766FA1120287010E00620F7
:406080002873204602F08EFA0646AA8A0A20424301212046FFF756FA002E01D109202071002070BDA814002038B504460020009068460BF0EBFA002801D00D2038BD20468F
:4060C000009D00F0B1F908202071204600F06EFD2946204602F0DAF900213D2001550F2040210855204600F057FF002038BD00B5024600F01FFD10214032117000BD10B524
:406100000446FEF711FF012809D04020005D112805D100231A4606212046FFF7BFFE10BD10B5FFF786FE10BD38B504460021684600910BF0ABFA00280CD12046009902F079
:4061400026FA05480821C28A2046FFF7FBF90D204034207038BD0000A814002038B504460021684600910BF091FA002801D00D2038BD2046009902F0FFF905480821C28A08
:406180002046FFF7DFF90C2040342070002038BDA814002000787047F8B50025002801D0002400E01A4C002C28D0204600F0CBFC002823D0207903281CD005281CD0264695
:4061C0004036B18AA07801F0DBFCB078012815D10021204601F043FE274680373868002802D00BF0C1FA3D600020B0702079072805D007E0042000E006202071F8BD204673
:40620000FFF706FD0221204600F0E0FEF8BD00001015002010B54C22115400F04CF810BD10B50446FF21FFF798F909202071A07801F0CCFC10BD000038B5FF216A4611801F
:40624000002801D0002400E0084C002C0DD011460620FDF7B3FC684601882046FFF73DFD03480068C1692046884738BD10150020700D002010B504468079002809D02221A2
:406280004C200155FF212046FFF767F9204600F012F810BD10B5037902464032002B03D01173092B02D003E0002100E02221117300F001F810BDFEB50446008900270090F2
:4062C0002781207926464036002817D0012815D002280AD112E002AA01A9204601F090FD002807D101980BF035FA204601F0B0FD0028F0D02046FEF75DFCB776254680357D
:406300002868002802D00BF02FFA2F606868002802D00BF029FA6F60317B002919D0009800F064F8A078002100F082FF2046FFF7A9FAA07801F0B2F8A07800F02FFDFF2117
:406340002046FFF70AF90B20FFF7C2F800F068FCFEBD1F213173E2E7F8B517460E46054602F0D0FB04003CD020460C3001F03CF82046062200211830FBF724FC2046062253
:4063800000211230FBF71EFC1648224600683946436A28469847074626702846FEF7C4FD012148406070002D10D02889608028464030C1782171002E0FD169796171018AB2
:4063C000E180418A2181808A608106E00648008BC005C00F2071002060803946204603F0E6F8F8BD580D002000102E400A4610B50146002003F0F8F910BD10B50AF0BCFEEC
:4064000010BD000000B50146FFF716FA002801D0002000E00348002802D002898A4200D0002000BD1015002038B5044680346068002806D168460BF039F9002801D10098E7
:406440006060606838BD000010B5014600F086FB0128887802D0FEF771FD10BD8C214843024940186030007F10BD0000F014002070B5054604464035A87F012811D1A178A2
:406480008C20084A484380186030067F3046FEF719FF002805D10220A877A078314601F0B7F870BDF014002010B50C4CA07A002813D0FEF7B3FF0A48027F417F408B00F02D
:4064C000B7FB012809D10020A07200F019FF05498989090B01D000F03BFA10BDAC150020F0140020A0102E4070477047490510B5490F0B00FCF7F8FC060704080C0C0F0741
:406500003E21FFF787FE10BD0821FFF7C3FE10BDFFF7D1FE10BDFFF7ADFE10BDF8B507460025002D01D0002600E0204E00F096FE3046403044890021418100F0AFFE304649
:4065400000F001FB01282BD1A00702D52846FFF723FEE00602D52846FFF76EFEA00601D5FEF75CFF600601D500F014FB200602D5284600F01DF8600702D5284600F02CFA41
:40658000380402D52846FFF727FB780402D52846FFF714FBE00703D021463046FFF7A6FF6D1C2D062D0EBCD0F8BD000010150020F8B5002801D0002400E0284C002C4BD068
:4065C00025464035A878012846D1FF278820493700593E46002805D02149897A890601D5878AC68A2046FEF79FFC012834D002F08DFA2A8A6179FFF74FF9009001F06CF8B3
:4066000000983346283081B23A46204602F050F8E98AA07801F02AFA12480188688A124E002810D048431149FBF77CFA0004000C01D0401C80B27080A07DC107C90F002038
:4066400001F0FAFA01E000207080288A698A484381B2A07801F08AFAF8BD000010150020A814002060112E40400D0020710200000149096809680847700D002070B50D462F
:406680000026194A0146002801D0002401E014462034002C26D0204600F060FA01280AD18C20484380186030007FFEF70BFE002801D101F0F7FE0D480068816920468847F0
:4066C00000280CD020464030817EA94202D3491B817600E086762089294603F026F8204600F05AFC70BD0000F0140020700D002070B503460088FFF785FE040013D000F0C1
:4067000022FA00280FD02079092819D02546997840352973204601F045FF0646A878012803D0AA8A02E0022070BDEA880A20424301212046FEF706FF002E01D10920207131
:40674000002070BD0EB5002217216B460292198100905A810120029B00990BF0A5F80EBDF8B518480024807A002822D1164E0025B089000B22E0204600F060FE1249A039AE
:40678000401807882A462146384600F051FA012810D00E480122478305770A4944778A72002D01D0002000E02030002801D000F0F3FBF8BDB089000B641CE4B20028DAD189
:4067C000F8BD0000AC150020A0102E40F014002010B50088FFF716FE002809D0014640310C460978082905D00B2903D00C2010BD022010BDFFF728FC002801D0092020701D
:40680000002010BD70B503460088FFF7FBFD040008D0254640352878082805D00B2803D00C2070BD022070BD8420005910220830991CFBF7BEF92046FFF7D8FA28780828B5
:4068400004D02046FFF78AFC002801D00A202870204600F0A1FB002070BD000010B50C46002121700088FFF7CDFD03000BD000F06AF9002807D00948F121807A0840C006BC
:4068800003D4112010BD022010BD022020701A8A1889002102F0C4FF002010BDA8140020F8B50F46002100910088FFF7ABFD040012D000F048F900280ED0E079410641D4D2
:4068C000617E02264A07002A08DB8907402500291ADA2843E07135E00220F8BD02F012F90021017021894180A1898180217E4170E189C1803E7005460178134802F06AFC34
:40690000284602F031FF1DE0204600F02DF9012806D068460AF0BAFE002803D00720F8BD2A20F8BDE07900992843E071204601F063FE607E0421304360760448C28A204669
:40694000FEF700FE0020F8BD1D040000A81400203EB500220F236C460292238100910190628169460EC900200AF09EFF3EBD0000F8B50F46054600F08FFA040025D0032002
:406980002071254600264035EE76E6702046FFF7B5F901F057F80920FEF79AFDA07800F06BFD0121204600F011FB2E706E70AE703A4600212046FFF7CFFC0649887B401C83
:4069C0008873A078FFF754FEF8BD284601F0FEF8F8BD0000F014002010B5002801D0002000E0094800280DD0014640310A464978022901D100215170807DC107C90F0020E0
:406A000001F01AF910BD00001015002070B503460D460088FFF7F6FC04000BD000F093F8002807D01248F121807A0840C00603D4112070BD022070BD20464030418A008A93
:406A4000491C41430804C10C5888884201D2122070BD20822079072802D12046FFF7D8F8022028702089002102F002FF002070BDA8140020016A491C016204D1817E491C03
:406A80004906490E81767047C169491CC16104D1C17E491C4906490EC1767047F0B5074687B003A8009005A800260D460190002F01D0002400E01B4C002C05D06846FCF79C
:406AC0006BF8002803D00BE0022007B0F0BD68460089C00704D18C2200212046FBF772F8114829460068826820469047050016D1A77066762746267140373E70204600F0AE
:406B000019F8204601F0A0F9084820820848BE77807AF121084000D001202075E682E8B2D3E7000010150020700D0020B80B0000A8140020002101628176C161C1762030A2
:406B40000177417770470079002805D0012803D0022801D001207047002070474030807F002800D00120704740300078002807D0012805D0052803D00E2801D0012070470F
:406B80000020704710B5807801F0DEF8002800D0012010BD10B500F0B3FB03498989090B01D0FFF7D5FE10BDA0102E4070B5054604464035A87F002825D1FF206075A078BA
:406BC0008C21154A484380186030417F8C23491CC9B24177A0785843104B8018DB896030994201D300214177A0788C21484380186030467F0677A1783046FEF763FB0028E9
:406C000002D00120A87770BD0220A877A078314600F0FEFC70BD0000F0140020C81500200020401C0006000EFBD0002070470000F0B515468207920F85B0000A02926A462E
:406C40009080002D01D0002400E0524C002C28D0084600F0F3FB07466846808800280BD00298012843D0022841D003280BD03D20005D012870D087E047483818018820469F
:406C8000FFF72BF880E00020029002A80AF0DEFC002807D03D20005D012878D12046FFF7E9FE74E06846029E8388324600213846FCF784FE3848381801882046FFF70DF8CA
:406CC000284600F0ADFA01AA21463046FEF7FAFD002806D030460AF029FD3D204C21085528E0F5773146204601F014FA4FE0002000902089039068460AF098FC002802D0BF
:406D0000002005B0F0BD6846009E8388321D00213846FCF753FE2048381801882046FEF7DCFF284600F07CFA25464035287E00280CD103E02046FFF773FA28E001AA2146AC
:406D40003046029BFEF7F6FD002806D030460AF0E3FC3D202873EDE713E00298FEF7CCFF01460398307003980901000A0843707068468088B070000AF0703046FFF7E2FCCC
:406D800005E02046FFF776FE284600F049FA0120B7E700001015002000102E4010B5074A917B002901D0491E91730021FFF776FE002801D0002010BD012010BDF0140020F1
:406DC000F8B5074606464037B87F00282DD0B0788C2100904843234945186035287F0099FEF785FA01281ED0287F401CC4B21E48C089A04200D800240020B877FF276F7700
:406E00002F77A87702460146009800F06DFD717DFF2903D0304600F0D8FF777501F042FB0025114F19E00320B877F8BD00200090224669463046FEF713FF0099002904D06D
:406E4000FF231A463046FEF76AFA641CF889E4B2A04200D800246D1CEDB2F889A842E5D8F8BD0000F0140020C815002010B502460021084B03E0002901D0002000E018466A
:406E80000479944204D0491C0906090EF3D0002010BD00001015002000B50120FFF7E6FF00BD10B5044601F02DFE2189018080346168416061682831816002F00FFC10BD7C
:406EC000F7B50646087982B00C46092807D0A078F0770846FFF742FE012806D010E030460AF038FC022005B0F0BDA1788C20294A484380186030007FFEF7E4F9012810D02E
:406F0000A078FEF7EDFD01280BD037780121304601F074FA25462035062F38D00B2F0FD107E06846027C21463046FEF7C9FE0D20D9E72046FDF7F8FF012801D100202877F5
:406F40002046FFF781FA054604AA21463046FEF726FD01205F2108556946097C002001910090A07833463A46294600F0FBFA69460A7CA0780323294600F03CFEA0782946E0
:406F8000FDF7F6FD30460AF0E5FB0020ABE70120D5E70000F014002010B502464032937F0021002B03D1927E002A00D00121064A927A002A00D000210279092A00D10121F2
:406FC000807800F059FE10BDAC15002070B50C460546FDF7A9FF00280BD1012C06D92879092806D02846FFF7CDFD0446002C02D004E0012402E0A87DC007FAD1A87DC10789
:40700000C90F204600F018FE70BD0000012807D0082804D104480282034808300180704701488038FAE70000A0102E40014908817047000000102E4010B50446FF20F130F8
:40704000012C01D1FF20D530002200F047FE044A108A044980B2A0430880108210BD000000102E40440D0020034B198A034A89B2814311801982704700102E40440D002067
:4070800010B50446012802D0082C07D102E0FF20D53001E0FF20F13000F018FE0348018A034A89B221431180018210BD00102E40440D0020034B198A034A89B201431180AD
:4070C0001982704700102E40440D0020F8B505460120A84086B214460F46012231467C2000F0FCFD3A463146782000F0F7FD6078267800020643E078A27800020243607982
:407100002379000203430C2045430D2080010549281844182680001D44182280001D40180380F8BD00102E40401880B270470000CB065B0E0343480901021943D0010843A6
:407140000121C902084301490881704780142E404278037812021343084A1382C37880781B021843908248780B78000203431383C8788978000201439183704700142E4013
:40718000024A1080000C90801181704700142E40044A002180180288491C89B21029FAD37047000000102E40024A10820148803081817047A0102E407047000010B5054A27
:4071C0001082084600F0AEFD024A0021A03A8018018010BDA0102E4010B50B46044600F005F819462046FFF7DFFF10BD024A10820148803001817047A0102E4010B50449D6
:407200000882FF20002220211D3000F067FD10BDA0102E400149088070470000C0102E40000202494D3008807047000000102E4010B5084B074C0202A03B0029208202D081
